:020000040800F2
:1000000000000820C52200083D2200083F22000809
:100010004122000843220008452200080000000099
:10002000000000000000000000000000472200085F
:1000300049220008000000004B2200084D22000861
:1000400015230008152300081523000815230008B0
:1000500015230008152300081523000815230008A0
:100060001523000815230008152300081523000890
:100070001523000815230008152300081523000880
:100080001523000815230008152300081523000870
:100090001523000815230008152300081523000860
:1000A0001523000815230008152300081523000850
:1000B0001523000815230008152300081523000840
:1000C0001523000815230008152300081523000830
:1000D0001523000815230008152300081523000820
:1000E0001523000815230008152300081523000810
:1000F0001523000815230008152300081523000800
:1001000015230008152300081523000815230008EF
:100110001523000815230008552200086522000851
:1001200015230008152300081523000815230008CF
:1001300015230008152300081523000815230008BF
:1001400015230008152300081523000815230008AF
:10015000152300081523000815230008152300089F
:10016000152300081523000815230008152300088F
:1001700015230008152300081523000800000000BF
:10018000152300081523000815230008152300086F
:10019000152300081523000815230008152300085F
:1001A000152300081523000815230008152300084F
:1001B000152300081523000815230008152300083F
:1001C000152300081523000800000000152300086F
:1001D000152300081523000815230008152300081F
:1001E000152300081523000815230008152300080F
:0801F000152300081523000887
:1002000090F800F06DE9024520F007016FF0000C56
:1002100010F0070491F820F040F049804FF00004FE
:100220006FF00700D1E9002391F840F000F10800D9
:1002300082FA4CF2A4FA8CF283FA4CF3A2FA8CF311
:100240004BBBD1E9022382FA4CF200F10800A4FA78
:100250008CF283FA4CF3A2FA8CF3E3B9D1E90423CC
:1002600082FA4CF200F10800A4FA8CF283FA4CF303
:10027000A2FA8CF37BB9D1E9062301F1200182FABD
:100280004CF200F10800A4FA8CF283FA4CF3A2FAC3
:100290008CF3002BC6D0002A04BF04301A4612BAD1
:1002A000B2FA82F2FDE8024500EBD2007047D1E9D4
:1002B000002304F00305C4F100004FEAC50514F063
:1002C000040F91F840F00CFA05F562EA05021CBF34
:1002D00063EA050362464FF00004A9E753B94AB93F
:1002E000002908BF00281CBF4FF0FF314FF0FF303E
:1002F00000F00CB8ADF1080C6DE904CE02F0EEF898
:10030000DDF804E0DDE9022304B07047704700BF68
:1003100010B5054C227832B9044B13B10448AFF341
:1003200000800123237010BD3C0400200000000069
:100330008827000808B5034B1BB103490348AFF3F6
:10034000008008BD0000000040040020882700084D
:1003500010B504460E4B18784FF47A73B3FBF0F3E4
:100360000C4A1068B0FBF3F000F09CF868B90F2C51
:1003700001D901200AE0002221464FF0FF3000F0B1
:1003800051F8054B1C60002000E0012010BD00BFAB
:1003900000000020080000200400002008B5032011
:1003A00000F02EF80020FFF7D3FF01F0C1FE00207F
:1003B00008BD0000034A1168034B1B780B4413600F
:1003C000704700BF5805002000000020014B18684E
:1003D000704700BF5805002038B50446FFF7F6FF08
:1003E0000546B4F1FF3F02D0044B1B781C44FFF7D5
:1003F000EDFF401BA042FAD338BD00BF0000002033
:100400000649CB6823F4E0631B041B0C000200F4D4
:10041000E0600343024A1A43CA60704700ED00E0FF
:100420000000FA0530B4154BDB68C3F30223C3F1B7
:100430000704042C28BF04241D1D062D14D9033BDA
:100440004FF0FF3505FA04F421EA0401994005FA5A
:1004500003F322EA03031943002807DB0901C9B2A9
:10046000074B195430BC70470023E9E700F00F0038
:100470000901C9B2034B1954F4E700BF00ED00E0D5
:1004800000E400E014ED00E0002807DB00F01F02AC
:10049000400901239340024A42F82030704700BFD0
:1004A00000E100E00138B0F1807F0AD2064B5860CD
:1004B000064AF02182F823100020986007221A6073
:1004C00070470120704700BF10E000E000ED00E041
:1004D00000230F2B00F2E380F0B482B039E0092250
:1004E00000E00022B2403A4302346D4E46F8242028
:1004F0006C4A1468EA4324EA05064F6817F4803F03
:1005000001D045EA0406674C2660646802EA0406E6
:100510004F6817F4003F01D045EA0406614C66605D
:10052000A46802EA04064F6817F4801F01D045EA68
:1005300004065C4CA660E46822404E6816F4001F76
:1005400001D045EA0402574CE26001330F2B00F260
:10055000A38001229A400C6804EA020532EA0404EE
:10056000F3D14C68122C18BF022C10D1DE080836CB
:1005700050F826C003F00704A7000F24BC402CEA63
:10058000040C0C69BC4044EA0C0440F82640D0F846
:1005900000C05E000324B440E7432CEA040C4C681E
:1005A00004F00304B44044EA0C0404604C6804F111
:1005B000FF3C112C18BFBCF1010F01D9122C10D136
:1005C000846807EA040CCC68B44044EA0C048460F4
:1005D000446824EA02024C68C4F300149C401443AB
:1005E0004460C26817408A68B2403A43C2604A68B1
:1005F00012F0805FA9D02C4A546C44F480445464B7
:10060000526C02F480420192019A9C08A61C244A72
:1006100052F8267003F0030296000F22B24027EA38
:100620000207224A90423FF45CAF02F5806290429A
:1006300022D002F58062904220D002F58062904282
:100640001ED002F5806290421CD002F5806290427A
:100650001AD002F58062904218D002F58062904272
:1006600016D002F58062904214D002F5806290426A
:100670003FF435AF0A2235E7012233E7022231E7A2
:1006800003222FE704222DE705222BE7062229E784
:10069000072227E7082225E702B0F0BC7047704721
:1006A00000380140003C0140003802400000024098
:1006B0000AB181617047090481617047436931EA79
:1006C000030301D081617047090481617047000014
:1006D00010B582B01B4B1A6C42F080521A641B6C2E
:1006E00003F080530193019B174A136843F480334E
:1006F0001360FFF76BFE0446134B5B6813F4803FF7
:1007000008D1FFF763FE001BB0F57A7FF4D9032010
:1007100002B010BD0C4A136843F400331360FFF7B6
:1007200055FE0446084B5B6813F4003F07D1FFF702
:100730004DFE001BB0F57A7FF4D90320E8E70020D6
:10074000E6E700BF0038024000700040002800F0DB
:10075000DA8170B582B00446036813F0010F29D026
:10076000A74B9B6803F00C03042B1AD0A44B9B6887
:1007700003F00C03082B0FD06368B3F5803F40D023
:10078000002B54D19E4B1A6822F480321A601A68EA
:1007900022F480221A6039E0994B5B6813F4800FD1
:1007A000EAD0974B1B6813F4003F03D06368002B1B
:1007B00000F0AB81236813F0020F74D0904B9B685C
:1007C00013F00C0F5ED08E4B9B6803F00C03082BCC
:1007D00053D0E368002B00F08980894A136843F006
:1007E00001031360FFF7F2FD0546854B1B6813F00C
:1007F000020F72D1FFF7EAFD401B0228F5D9032052
:1008000088E17F4A136843F48033136063682BB335
:10081000FFF7DCFD05467A4B1B6813F4003FC9D196
:10082000FFF7D4FD401B6428F5D9032072E1B3F52E
:10083000A02F09D0724B1A6822F480321A601A680D
:1008400022F480221A60E1E76D4B1A6842F480229C
:100850001A601A6842F480321A60D7E7FFF7B6FDD3
:100860000546674B1B6813F4003FA3D0FFF7AEFDAE
:10087000401B6428F5D903204CE1614B5B6813F4FD
:10088000800FA6D15E4B1B6813F0020F03D0E36804
:10089000012B40F03C815A4A136823F0F803216988
:1008A00043EAC1031360236813F0080F46D063695D
:1008B00083B3534A536F43F001035367FFF786FD39
:1008C00005464F4B5B6F13F0020F37D1FFF77EFDEC
:1008D000401B0228F5D903201CE1494A136823F084
:1008E000F803216943EAC1031360DCE7444A136853
:1008F00023F001031360FFF769FD0546404B1B68B9
:1009000013F0020FCFD0FFF761FD401B0228F5D98D
:100910000320FFE03A4A536F23F001035367FFF7C8
:1009200055FD0546364B5B6F13F0020F06D0FFF7FF
:100930004DFD401B0228F5D90320EBE0236813F09E
:10094000040F7DD02E4B1B6C13F0805F0BD12C4B12
:100950001A6C42F080521A641B6C03F080530193AE
:10096000019B012500E00025264B1B6813F4807FC6
:100970000ED0A368012B1FD0002B35D1204B1A6F4E
:1009800022F001021A671A6F22F004021A6718E0B7
:100990001C4A136843F480731360FFF717FD064683
:1009A000184B1B6813F4807FE3D1FFF70FFD801B0A
:1009B0006428F5D90320ADE0114A136F43F0010319
:1009C0001367A36853B3FFF701FD06460C4B1B6F7B
:1009D00013F0020F33D1FFF7F9FC801B41F288338B
:1009E0009842F3D9032095E0052B0DD0044B1A6FE4
:1009F00022F001021A671A6F22F004021A67E0E778
:100A00000038024000700040444B1A6F42F004026C
:100A10001A671A6F42F001021A67D2E7FFF7D6FC95
:100A200006463E4B1B6F13F0020F08D0FFF7CEFCBB
:100A3000801B41F288339842F3D903206AE0F5B96C
:100A4000A369002B65D0354A926802F00C02082A8F
:100A500062D0022B19D0314A136823F080731360DF
:100A6000FFF7B4FC04462D4B1B6813F0007F48D001
:100A7000FFF7ACFC001B0228F5D903204AE0274A07
:100A8000136C23F080531364DAE7244A136823F0CD
:100A900080731360FFF79AFC0546204B1B6813F028
:100AA000007F06D0FFF792FC401B0228F5D90320F7
:100AB00030E0E369226A1343626A43EA8213A26A5E
:100AC0005208013A43EA0243E26A43EA0263226BB4
:100AD00043EA0273114A5360136843F08073136052
:100AE000FFF774FC04460D4B1B6813F0007F06D122
:100AF000FFF76CFC001B0228F5D903200AE0002058
:100B000008E0002006E001207047012002E00120FB
:100B100000E0002002B070BD0120FBE70038024079
:100B2000F8B52D4B9B6803F00C03082B01D02B4824
:100B3000F8BD294B5A6802F03F025B6813F4800F3E
:100B400028D0254B5B68C3F3881358010021C01AD5
:100B500061F100018E0146EA906687013C1A66EB5E
:100B60000105E90041EA5471E000C01841F10001BB
:100B70008B0243EA90538402204619460023FFF774
:100B8000ADFB154B5B68C3F3014301335B00B0FB66
:100B9000F3F0CDE7104B5B68C3F388135C010025CD
:100BA000E41A65F10005AE0146EA9466A701381B18
:100BB00066EB0501CC0044EA5074C500E81844F126
:100BC00000018B0243EA9053840220461946002319
:100BD000FFF784FBD5E700BF003802400024F40093
:100BE000002800F09F8070B50D460446514B1B68ED
:100BF00003F00F038B420BD24E4A136823F00F030E
:100C00000B431360136803F00F038B4240F08C809A
:100C1000236813F0020F17D013F0040F04D0464AD4
:100C2000936843F4E0539360236813F0080F04D0F3
:100C3000414A936843F4604393603F4A936823F0CA
:100C4000F003A1680B439360236813F0010F31D0C8
:100C50006368012B20D0022B25D0374A126812F08E
:100C6000020F63D034498A6822F0030213438B6079
:100C7000FFF7ACFB0646304B9B6803F00C03626841
:100C8000B3EB820F16D0FFF7A1FB801B41F2883334
:100C90009842F0D9032044E0274A126812F4003F3A
:100CA000E0D101203DE0244A126812F0007FD9D142
:100CB000012036E01F4B1B6803F00F03AB420AD93B
:100CC0001C4A136823F00F032B431360136803F0CF
:100CD0000F03AB422CD1236813F0040F06D0164A41
:100CE000936823F4E053E1680B439360236813F0A7
:100CF000080F07D0104A936823F46043216943EA40
:100D0000C1039360FFF70CFF0B4B9B68C3F3031306
:100D10000A4AD35CD8400A4B18600020FFF718FB42
:100D2000002070BD012070470120FAE70120F8E79C
:100D30000120F6E7003C024000380240C0270008CE
:100D400008000020014B1868704700BF0800002011
:100D500008B5FFF7F7FF044B9B68C3F38223034AF0
:100D6000D35CD84008BD00BF00380240D02700083F
:100D700008B5FFF7E7FF044B9B68C3F34233034A10
:100D8000D35CD84008BD00BF00380240D02700081F
:100D9000F0B583B00446066816F001060DD0B54BD9
:100DA0009A6822F400029A609A68416B0A439A603A
:100DB000436B002B00F055810026256815F40025B3
:100DC00011D0AC4AD2F88C3023F44013E16B0B43C2
:100DD000C2F88C30E36BB3F5801F00F04481002B28
:100DE00000F043810025236813F4801F0FD0A14A2F
:100DF000D2F88C3023F44003216C0B43C2F88C30C2
:100E0000236CB3F5800F00F0328103B9012523680C
:100E100013F0807F00D0012613F0200F40F02C81CA
:100E2000236813F0100F0CD0924BD3F88C2022F0D3
:100E30008072C3F88C20D3F88C20A16B0A43C3F8CE
:100E40008C20236813F4804F08D08A4AD2F890305F
:100E500023F44033616E0B43C2F89030236813F4DF
:100E6000004F08D0834AD2F8903023F44023A16E7B
:100E70000B43C2F89030236813F4803F08D07D4ABA
:100E8000D2F8903023F44013E16E0B43C2F8903057
:100E9000236813F4003F08D0764AD2F8903023F448
:100EA0004003216F0B43C2F89030236813F0400FCA
:100EB00008D0704AD2F8903023F00303616C0B43E2
:100EC000C2F89030236813F0800F08D0694AD2F836
:100ED000903023F00C03A16C0B43C2F890302368D0
:100EE00013F4807F08D0634AD2F8903023F03003A7
:100EF000E16C0B43C2F89030236813F4007F08D0F4
:100F00005C4AD2F8903023F0C003216D0B43C2F845
:100F10009030236813F4806F08D0564AD2F890308E
:100F200023F44073616D0B43C2F89030236813F4CF
:100F3000006F08D04F4AD2F8903023F44063A16D7F
:100F40000B43C2F89030236813F4805F08D0494AFD
:100F5000D2F8903023F44053E16D0B43C2F8903047
:100F6000236813F4005F08D0424AD2F8903023F48B
:100F70004043216E0B43C2F89030236813F4800F76
:100F800008D03C4AD2F8903023F08063A16F0B4325
:100F9000C2F89030236813F4001F0DD0354AD2F800
:100FA000903023F00063E16F0B43C2F89030E36FA1
:100FB000B3F1006F00F0C680236813F0080F00D073
:100FC000012513F4802F08D02A4AD2F8903023F05C
:100FD0004073616F0B43C2F89030236813F4000F25
:100FE00009D0244AD2F8903023F08053D4F88010EE
:100FF0000B43C2F89030236813F0806F09D01D4A6C
:10100000D2F8903023F00053D4F884100B43C2F888
:101010009030236813F0006F09D0164AD2F88C3054
:1010200023F00073D4F888100B43C2F88C30236887
:1010300013F0805F09D00F4AD2F88C3023F0806320
:10104000D4F88C100B43C2F88C30002E7CD123686E
:10105000B3F1007F78D0012D00F00981002003B0AA
:10106000F0BD0126A9E60126B9E60125BBE6012669
:10107000CBE600BF00380240B74B1A6C42F08052FA
:101080001A641B6C03F080530193019BB34A1368ED
:1010900043F480731360FFF799F90746AF4B1B6861
:1010A00013F4807F06D1FFF791F9C01B6428F5D9AE
:1010B0000320D4E7A84B1B6F13F4407315D0226BA9
:1010C00002F440729A4210D0A34B1A6F22F440727D
:1010D000196F41F480311967196F21F48031196754
:1010E0001A671B6F13F0010F12D1236B03F44072C8
:1010F000B2F5407F1DD0984A936823F4F8139360AB
:1011000095490B6F226BC2F30B0213430B6787E603
:10111000FFF75CF90746904B1B6F13F0020FE4D109
:10112000FFF754F9C01B41F288339842F3D90320EA
:1011300095E78948826822F4F812894919400A43E0
:101140008260DDE7012537E7834A136823F0806377
:101150001360FFF73BF906467F4B1B6813F0006FE7
:1011600006D0FFF733F9801B6428F5D9032076E712
:10117000236813F0010F13D0636B8BB9764AD2F852
:101180008430D2F88410606803F4403343EA80135B
:1011900001F070610B43A16843EA0173C2F8843027
:1011A000236813F4002F03D0E26BB2F5801F06D042
:1011B00013F4801F1ED0236CB3F5800F1AD1664A3A
:1011C000D2F88430D2F88410606803F4403343EAE4
:1011D0008013E06843EA006301F0E0410B43C2F88A
:1011E0008430D2F88C3023F01F03616A01390B433D
:1011F000C2F88C30236813F0807F11D0564AD2F8A1
:101200008400D2F88410666823691B0443EA8613BD
:1012100000F07060034301F0E0410B43C2F88430FA
:10122000236813F0007F0DD0626823691B0443EA32
:101230008213E26843EA0263A26843EA0273464A01
:10124000C2F88430444A136843F080631360FFF7A8
:10125000BDF80646404B1B6813F0006F7FF4FBAEF1
:10126000FFF7B4F8801B6428F4D90320F7E63A4A64
:10127000136823F080531360FFF7A8F80546364B38
:101280001B6813F0005F06D0FFF7A0F8401B64282E
:10129000F5D90320E3E6236813F4002F01D0E26BB5
:1012A00022B113F4801F1DD0236CDBB92A4AD2F877
:1012B0008830D2F88810606903F4403343EA801321
:1012C000A06943EA006301F0E0410B43C2F88830B3
:1012D000D2F88C3023F4F853A16A013943EA012390
:1012E000C2F88C30236813F4001F03D0E36FB3F10E
:1012F000006F37D0236813F0080F19D0164AD2F8C0
:101300008810D2F88830606903F4403343EA8013D0
:1013100001F070610B43E16943EA0173C2F8883060
:10132000D2F88C3023F44033E16A0B43C2F88C309E
:10133000094A136843F080531360FFF747F80446E7
:10134000054B1B6813F0005F1FD1FFF73FF8001B30
:101350006428F5D9032082E600380240007000407E
:10136000FFFCFF0F0A4AD2F88800D2F8881065699E
:10137000236A1B0443EA851300F07060034301F005
:10138000E0410B43C2F88830B4E7002067E600BFB5
:10139000003802407047704770477047704710B57B
:1013A000044603681A6912F0020F11D0DA6812F0CD
:1013B000020F0DD06FF002021A6101230377036858
:1013C0009B6913F0030F79D0FFF7E6FF0023237723
:1013D00023681A6912F0040F12D0DA6812F0040FB1
:1013E0000ED06FF004021A610223237723689B69F1
:1013F00013F4407F68D02046FFF7CEFF0023237709
:1014000023681A6912F0080F12D0DA6812F0080F78
:101410000ED06FF008021A61042323772368DB697A
:1014200013F0030F57D02046FFF7B6FF00232377B2
:1014300023681A6912F0100F12D0DA6812F0100F38
:101440000ED06FF010021A61082323772368DB693E
:1014500013F4407F46D02046FFF79EFF00232377FA
:1014600023681A6912F0010F03D0DA6812F0010F35
:101470003FD123681A6912F0800F03D0DA6812F0A6
:10148000800F3DD123681A6912F4807F03D0DA6897
:1014900012F0800F3BD123681A6912F0400F03D07D
:1014A000DA6812F0400F39D123681A6912F0200F60
:1014B00003D0DA6812F0200F37D110BDFFF76BFFB1
:1014C0002046FFF76AFF81E72046FFF764FF2046CA
:1014D000FFF763FF92E72046FFF75DFF2046FFF727
:1014E0005CFFA3E72046FFF756FF2046FFF755FFB6
:1014F000B4E76FF001021A612046FFF74BFFB8E72F
:101500006FF080021A61204600F0E9F8BAE76FF444
:1015100080721A61204600F0E3F8BCE76FF04002E9
:101520001A612046FFF73AFFBEE76FF020021A610A
:10153000204600F0D3F8C0E770B403683A4CA042EC
:1015400014BF00240124B0F1804F14BF224644F0A0
:101550000102AAB9354DA84214BF00250125344E19
:10156000B0420DD065B905F1804505F58235A84238
:1015700014BF0025012506F50066B04200D01DB15C
:1015800023F070034D682B43002A33D1274A904241
:1015900014BF00220122264DA8422BD052BB02F1DB
:1015A000804202F58232904214BF0022012205F5EA
:1015B0000065A8421ED0EAB91E4A904214BF00221C
:1015C000012205F59A35A84214D09AB91A4A9042D8
:1015D00014BF0022012205F50065A8420AD04AB9CD
:1015E000164A904214BF00220122A5F59635A84262
:1015F00000D01AB123F44073CA68134323F0800368
:101600004A69134303608A68C2620A6882620C4BAB
:10161000984214BF234644F001030BB10B690363E6
:101620000123436170BC7047000001400008004086
:101630000004004000440140001800400020004029
:1016400000040140B0B110B5044690F83D3063B1DC
:10165000022384F83D30214651F8040BFFF76CFF5C
:10166000012384F83D30002010BD80F83C3000F0AC
:1016700077FDEDE70120704790F83C30012B27D033
:1016800070B4012380F83C30022380F83D300368B9
:101690005A689D680F4E104CA34218BFB34203D145
:1016A00022F470024C68224322F070020C6822433C
:1016B00025F08004896821435A60036899600123FA
:1016C00080F83D30002380F83C30184670BC7047ED
:1016D000022070470000014000040140704770473D
:1016E0007047000038B504468368026913434269B5
:1016F0001343C2691343016808689F4A02401343B9
:101700000B602268536823F44053E1680B43536035
:10171000A269236A1A4321688B6823F43063134358
:101720008B602368954A934219D0954A934229D0F9
:10173000944A93423ED0944A934262D0934A934251
:1017400071D0934A934200F08380924A934200F012
:101750009480914A934200F0A58010253AE08F4B87
:10176000D3F8903003F00303032B09D8DFE803F02C
:101770000204AE0601252DE004252BE0082529E012
:10178000102527E0854BD3F8903003F00C030C2B89
:101790000ED8DFE803F0070D0D0D090D0D0D9D0DA1
:1017A0000D0D0B00002515E0042513E0082511E0C0
:1017B00010250FE0794BD3F8903003F03003202B45
:1017C00000F0888019D8002B00F08680102B40F0A4
:1017D00085800425E369B3F5004F00F0AB80082D48
:1017E00000F24081DFE815F00701180122013E01F7
:1017F0002B013E013E013E013501302B70D1082501
:10180000E8E7664BD3F8903003F0C003802B69D033
:1018100005D8002B68D0402B68D10425DAE7C02B0F
:1018200066D10825D6E75D4BD3F8903003F44073BA
:10183000B3F5007F5ED006D8002B5DD0B3F5807F76
:101840005CD10425C6E7B3F5407F59D10825C1E72F
:10185000524BD3F8903003F44063B3F5006F51D08E
:1018600006D8002B50D0B3F5806F4FD10425B1E7D7
:10187000B3F5406F4CD10825ACE7484BD3F8903016
:1018800003F44053B3F5005F44D006D8002B43D097
:10189000B3F5805F42D104259CE7B3F5405F3FD1AB
:1018A000082597E73D4BD3F8903003F44043B3F558
:1018B000004F37D005D8BBB3B3F5804F36D10425E0
:1018C00088E7B3F5404F33D1082583E7022581E748
:1018D00002257FE702257DE700257BE7102579E7D4
:1018E000102577E7022575E7002573E7102571E7D6
:1018F00010256FE702256DE700256BE7102569E7E6
:10190000102567E7022565E7012563E7102561E7F4
:1019100010255FE702255DE700255BE7102559E705
:10192000102557E7022555E7002553E7102551E715
:1019300010254FE7082D5BD8DFE805F005323D5A4A
:10194000465A5A5A5100FFF703FA6268530803EBEC
:101950004003B3FBF2F39BB2A3F110014FF6EF7219
:10196000914200F282809AB222F00F02C3F3420346
:1019700013432268D3607BE0F369FFEF001001405E
:101980000044004000480040004C0040005000402F
:101990000014014000780040007C00400038024004
:1019A000FFF7E6F96268530803EB4003B3FBF2F379
:1019B0009BB20025D0E76268304B03EB5203B3FBC8
:1019C000F2F39BB20025C7E7FFF7AAF86268530855
:1019D00003EB4003B3FBF2F39BB20025BCE7626864
:1019E000530803F58033B3FBF2F39BB20025B3E752
:1019F00001250023B0E7FFF7ABF9626800EB520363
:101A0000B3FBF2F39BB2A3F110014FF6EF729142D8
:101A10002DD82268D3602BE0FFF7AAF9626800EBAB
:101A20005203B3FBF2F39BB20025ECE76268144B60
:101A300003EB5203B3FBF2F39BB20025E3E7FFF79E
:101A40006FF8626800EB5203B3FBF2F39BB2002520
:101A5000D9E76268530803F50043B3FBF2F39BB286
:101A60000025D0E701250023CDE7012500E0012571
:101A7000002323666366284638BD00BF0048E8019E
:101A80000024F400436A13F0010F06D00268536883
:101A900023F40033816A0B435360436A13F0020F4F
:101AA00006D00268536823F48033C16A0B43536045
:101AB000436A13F0040F06D00268536823F48023AE
:101AC000016B0B435360436A13F0080F06D00268A2
:101AD000536823F40043416B0B435360436A13F094
:101AE000100F06D00268936823F48053816B0B4378
:101AF0009360436A13F0200F06D00268936823F4C2
:101B00000053C16B0B439360436A13F0400F0AD03C
:101B10000268536823F48013016C0B435360036C19
:101B2000B3F5801F0BD0436A13F0800F06D0026814
:101B3000536823F40023816C0B43536070470268A1
:101B4000536823F4C003416C0B435360EBE72DE96A
:101B5000F84305460F4616469946DDF820802C6866
:101B6000E46937EA04030CBF01240024B4421DD108
:101B7000B8F1FF3FF3D0FEF729FCA0EB0900404588
:101B800002D8B8F1000FEAD12A68136823F4D073A1
:101B900013602A68936823F00103936020236B6726
:101BA000AB67002385F87030032000E00020BDE81B
:101BB000F8832DE9F04182B01E46436F202B58D1A7
:101BC00004460D469046B2FA82F35B09002908BF2D
:101BD0000123002B51D190F87030012B4FD00123FD
:101BE00080F870300023C36721234367FEF7EEFBC4
:101BF0000746A4F85080A4F85280A368B3F5805F2C
:101C000002D04FF0000810E023690BB34FF000083A
:101C10000BE038F8023B2268C3F308039362B4F880
:101C20005220013A92B2A4F85220B4F852309BB23A
:101C30008BB100963B46002280212046FFF787FFAC
:101C4000F8B9002DE5D015F8012B23689A62E6E774
:101C5000A8460025E9E700963B46002240212046A1
:101C6000FFF775FF78B920236367002384F870308D
:101C700000E0022002B0BDE8F0810120FAE7022076
:101C8000F8E70320F6E70320F4E710B582B0044636
:101C90000023C367FEF79AFB23681B6813F0080F45
:101CA00007D120236367A367002084F8700002B087
:101CB00010BD6FF07E430093034600224FF40011E5
:101CC0002046FFF744FF0028EBD00320EFE768B37E
:101CD00010B50446436F03B3242363672268136877
:101CE00023F0010313602046FFF7FCFC012813D00A
:101CF000636ABBB92268536823F490435360226837
:101D0000936823F02A0393602268136843F0010369
:101D100013602046FFF7B9FF10BD80F8703000F067
:101D200057FAD9E72046FFF7ADFEE3E701207047F9
:101D30002DE9F04F8DB000240794089409940A947B
:101D40000B94694B1A6B42F004021A631A6B02F08F
:101D500004020192019A1A6B42F080021A631A6B14
:101D600002F080020292029A1A6B42F001021A6398
:101D70001A6B02F001020392039A1A6B42F00202FC
:101D80001A631A6B02F002020492049A1A6B42F070
:101D900008021A631A6B02F008020592059A1A6B80
:101DA00042F040021A631B6B03F040030693069B4C
:101DB000DFF848B1224644F281015846FEF778FC2C
:101DC0004A4F224640213846FEF772FCDFF8309138
:101DD00022464FF480514846FEF76AFC4FF4005308
:101DE0000793434B0893099407A94846FEF770FBF5
:101DF0003223079302260896099403250A954FF08B
:101E00000B08CDF82C8007A94846FEF761FB862316
:101E10000793089609940A95CDF82C8007A93548B0
:101E2000FEF756FB44F2810307934FF0010ACDF809
:101E300020A009940A9407A95846FEF749FB4FF4DD
:101E400000530793089609940A95CDF82C8007A9AA
:101E50005846FEF73DFB40230793CDF820A0099498
:101E60000A9407A93846FEF733FB802307930894AA
:101E7000099407A93846FEF72BFB4FF4E853079364
:101E8000089609940A950A230B9307A91948FEF7A7
:101E90001FFB4FF4007307930894099407A9154892
:101EA000FEF716FB4FF480530793CDF820A009945A
:101EB0000A9507A94846FEF70BFB042307930894ED
:101EC000099407A90C48FEF703FB4FF4205307932E
:101ED000089609940A95CDF82C8007A93846FEF794
:101EE000F7FA0DB0BDE8F08F00380240001802404C
:101EF0000000111000000240000C024000040240EB
:101F00000008024030B585B0002501950295039583
:101F10000A4C0B4B2360D7236360A5600323E36067
:101F20008023A3612046FFF78DFB0195039501A94E
:101F30002046FFF7A1FB05B030BD00BFDC05002047
:101F40000010004030B585B000250195029503953D
:101F50000A4C0B4B23604EF65F236360A56040F292
:101F60000773E360A5612046FFF76CFB01950395BD
:101F700001A92046FFF780FB05B030BD1C060020FC
:101F80000014004008B50948094B03604FF4E133E1
:101F9000436000238360C36003610C22426183615C
:101FA000C36103624362FFF792FE08BD5C05002037
:101FB0000048004030B5B9B0342200212BA800F011
:101FC000EBF9002426942794289429942A949022AB
:101FD000214602A800F0E0F91E4B1A6C42F0805234
:101FE0001A641B6C03F080530093009B1A4B1A6811
:101FF00042F440421A601B6803F440430193019B82
:1020000002252B9501232E9310232F933195329483
:1020100008233393D8233493359536952BA8FEF7B0
:1020200095FBFEF755FB0F232693279528944FF435
:10203000A05329934FF480532A93072126A8FEF733
:10204000CFFD4FF480730293159402A8FEF7A0FE13
:1020500039B030BD003802400070004038B5054648
:102060000C460846FEF7CCF84FF6FF7382B22146C5
:102070002846FFF79EFD38BD10B5FEF78FF9FFF734
:1020800099FFFFF755FEFFF73DFFFFF75BFFFFF7F7
:1020900079FF01212148FEF711FB6420FEF79CF92E
:1020A0001E4C80212046FEF709FB01212046FEF749
:1020B00005FB6420FEF790F94FF480412046FEF7BF
:1020C000FDFA80212046FEF7F9FA6420FEF784F934
:1020D0004FF480412046FEF7F1FA80212046FEF7BA
:1020E000EDFA6420FEF778F980212046FEF7E6FA43
:1020F00001212046FEF7E2FA094C4FF6FF73132246
:1021000008492046FFF755FD074B084A07CA83E8F0
:10211000070019462046FFF7A1FFBEE70004024072
:102120005C050020A027000858040020B427000800
:1021300082B00A4B1A6C42F080521A641A6C02F098
:1021400080520092009A5A6C42F480425A645B6C4E
:1021500003F480430193019B02B0704700380240B2
:1021600000B583B00368174A934205D0164A9342DC
:1021700015D003B05DF804FB144B1A6C42F010024A
:102180001A641B6C03F010030093009B002211469D
:102190003620FEF747F93620FEF776F9E9E70B4BD4
:1021A0001A6C42F020021A641B6C03F020030193A6
:1021B000019B002211463720FEF734F93720FEF745
:1021C00063F9D6E7001000400014004000380240D8
:1021D00000B589B0002303930493059306930793F6
:1021E0000268144B9A4202D009B05DF804FB03F573
:1021F000F8331A6C42F480221A641A6C02F48022BA
:102200000192019A1A6B42F008021A631B6B03F0E9
:1022100008030293029B4FF4407303930223049339
:10222000032306930723079303A90348FEF750F9F6
:10223000DAE700BF00480040000C02407047FEE7AC
:10224000FEE7FEE7FEE770477047704708B5FEF708
:10225000B1F808BD08B50248FFF7A1F808BD00BFF6
:10226000DC05002008B50248FFF799F808BD00BF5B
:102270001C06002010B40F4AD2F8883043F47003D3
:10228000C2F888300C4B196841F001011960002038
:1022900098601C680949214019600949596019680A
:1022A00021F480211960D8604FF0006393605DF8DD
:1022B000044B704700ED00E000380240FFFFF6FEDF
:1022C00010300024DFF834D0002103E00C4B5B58C1
:1022D000435004310B480C4B42189A42F6D30B4A38
:1022E00002E0002342F8043B094B9A42F9D3FFF77E
:1022F000C1FF00F02DF8FFF7BFFE70470000082077
:10230000F0270008000000203C0400203C040020CE
:1023100080060020FEE70000002301461A4618460A
:1023200000F08AB838B5084B084D5B1B9C1007D0ED
:10233000043B1D44013C55F804399847002CF9D161
:10234000BDE8384000F026BAF0270008EC27000866
:1023500070B50D4E0D4D761BB61006D0002455F805
:10236000043B01349847A642F9D1094E094D761B2A
:1023700000F00AFAB61006D0002455F8043B0134E8
:102380009847A642F9D170BDE4270008E427000869
:10239000EC270008E4270008F0B4860746D0541E56
:1023A000002A3CD0CAB2034601E0013C37D303F80F
:1023B000012B9D07F9D1032C2AD9CDB245EA052579
:1023C0000F2C45EA054534D9A4F1100222F00F0C78
:1023D00003F120071609674403F1100242E904558E
:1023E00042E902551032BA42F8D1721C14F00C0FB7
:1023F00003EB021204F00F0613D0331F23F0030384
:102400000433134442F8045B9342FBD106F0030407
:102410002CB1CAB21C4403F8012B9C42FBD1F0BC86
:10242000704734461346002CF3D1F8E714460346B0
:10243000C1E71A462646E0E72DE9F047DFF87CA021
:102440000646DAF8000098460F46914600F042F83A
:10245000194B1B68D3F8484124B36568DAF80000CB
:102460001F2D24DC4EB9AB1C0135656044F8237088
:1024700000F032F80020BDE8F08704EB850301226C
:10248000C3F88890D4F88811AA401143022EC4F8EA
:102490008811C3F80881E6D1D4F88C311A43C4F806
:1024A0008C21E0E703F5A674C3F84841D5E700F0B6
:1024B00013F84FF0FF30DEE7D8270008380400207B
:1024C000024B13B10248FFF727BF7047000000001E
:1024D00025230008704700BF704700BF2DE9F04F6B
:1024E000099E8A468E46154604461946002B40F042
:1024F000CA805245B2FA82F747D94FB1C7F12008D6
:102500000AFA07F320FA08F8BD4048EA030EBC4077
:102510004FEA15491FFA85F8BEFBF9FB220C09FBAF
:102520001BE30BFB08FC42EA034AD44529D915EB0F
:102530000A0A0BF1FF3004D2D44502D9ABF10200F4
:10254000AA44AAEB0C0AA4B2BAFBF9F309FB13AA3A
:1025500003FB08F844EA0A44A04514D92C1903F1F6
:10256000FF3203D2A04501D99A1E2C44A4EB0804E3
:1025700042EA00401EB1FC40002334607360BDE8B5
:10258000F08F5846DDE71A46F0E702B9FFDE9FBB41
:10259000AAEB020301214FEA154CAAB2B3FBFCFEE1
:1025A000200C0CFB1E330EFB02F840EA0343984557
:1025B00065D9EB180EF1FF3004D2984502D9AEF17F
:1025C00002002B44A3EB0803A4B2B3FBFCFE0CFBFC
:1025D0001E330EFB02F244EA0344A24251D92C19E5
:1025E0000EF1FF3304D2A24202D9AEF102032C4411
:1025F000A41A43EA0040BDE7C7F120082AFA08F907
:10260000BD4020FA08F80AFA07F348EA03024FEA45
:10261000154CABB2B9FBFCFE110C0CFB1E900EFB73
:1026200003F841EA0040804504FA07F423D928184A
:102630000EF1FF3104D2804502D9AEF102012844E7
:10264000A0EB080092B2B0FBFCFE0CFB1E000EFBE0
:1026500003F842EA004398450FD9EB180EF1FF3218
:1026600004D2984502D9AEF102022B44A3EB080331
:1026700042EA01418FE77146E2E77246F6E77046AB
:10268000A0E77346B4E7534505D90EB1C6E9000A81
:102690000021084673E7B3FA83F8B8F1000F10D1B0
:1026A000534501D382420AD8841A6AEB03030120FE
:1026B0009E46002E65D0C6E9004E00215FE74046E9
:1026C000F7E7C8F1200903FA08F322FA09F71F43D4
:1026D00020FA09F40AFA08F32AFA09F51C434FEA2A
:1026E000174A02FA08FC00FA08FEB5FBFAF2BBB280
:1026F0000AFB1250250C02FB03F145EA0045A942F2
:102700003BD97D1902F1FF3003D2A94201D9901EB5
:102710003D446D1AA4B2B5FBFAF20AFB12555343BD
:1027200044EA05418B422AD9791802F1FF3403D2D9
:102730008B4201D9941E394444EA0040A0FB0C4569
:10274000C91AA94223462A4602D306D1A64504D275
:10275000B4EB0C0365EB0702013896B1BEEB030442
:1027600061EB020E0EFA09F924FA08F349EA0303B1
:102770002EFA08F1C6E900319FE71046C9E7144672
:10278000DAE73146FBE60000F8B500BFF8BC08BC4C
:102790009E467047F8B500BFF8BC08BC9E4670471F
:1027A00048656C6C6F204E75636C656F2046756E66
:1027B000210A0D00416C6C20776F726B696E6700A7
:1027C00000000000000000000102030406070809E1
:0C27D000000000000102030410000020C3
:0827DC0000FDFF7F0100000079
:0827E400C124000835030008C0
:0427EC0011030008CD
:1027F00001000000100000000024F40000000000B0
:1028000000000000FC02002064030020CC03002034
:1028100000000000000000000000000000000000B8
:1028200000000000000000000000000000000000A8
:102830000000000000000000000000000000000098
:102840000000000000000000000000000000000088
:102850000000000000000000000000000000000078
:102860000000000000000000000000000000000068
:102870000000000000000000000000000000000058
:102880000000000000000000000000000000000048
:102890000000000000000000000000000000000038
:1028A0000000000000000000010000000000000027
:1028B0000E33CDAB34126DE6ECDE05000B000000EC
:1028C0000000000000000000000000000000000008
:1028D00000000000000000000000000000000000F8
:1028E00000000000000000000000000000000000E8
:1028F00000000000000000000000000000000000D8
:0C2C200000000000000000005C06002026
:04000005080022C508
:00000001FF
