:020000040800F2
:100000000000082009270008812600088326000830
:1000100085260008872600088926000800000000C1
:100020000000000000000000000000008B26000817
:100030008D260008000000008F2600089126000889
:100040005927000859270008592700085927000890
:100050005927000859270008592700085927000880
:100060005927000859270008592700085927000870
:100070005927000859270008592700085927000860
:100080005927000859270008592700085927000850
:100090005927000859270008592700085927000840
:1000A0005927000859270008592700085927000830
:1000B0005927000859270008592700085927000820
:1000C0005927000859270008592700085927000810
:1000D0005927000859270008592700085927000800
:1000E00059270008592700085927000859270008F0
:1000F00059270008592700085927000859270008E0
:1001000059270008592700085927000859270008CF
:10011000592700085927000899260008A926000831
:1001200059270008592700085927000859270008AF
:10013000592700085927000859270008592700089F
:10014000592700085927000859270008592700088F
:10015000592700085927000859270008592700087F
:10016000592700085927000859270008592700086F
:1001700059270008592700085927000800000000E7
:10018000592700085927000859270008592700084F
:10019000592700085927000859270008592700083F
:1001A000592700085927000859270008592700082F
:1001B000592700085927000859270008592700081F
:1001C0005927000859270008000000005927000897
:1001D00059270008592700085927000859270008FF
:1001E00059270008592700085927000859270008EF
:0801F0005927000859270008F7
:1002000090F800F06DE9024520F007016FF0000C56
:1002100010F0070491F820F040F049804FF00004FE
:100220006FF00700D1E9002391F840F000F10800D9
:1002300082FA4CF2A4FA8CF283FA4CF3A2FA8CF311
:100240004BBBD1E9022382FA4CF200F10800A4FA78
:100250008CF283FA4CF3A2FA8CF3E3B9D1E90423CC
:1002600082FA4CF200F10800A4FA8CF283FA4CF303
:10027000A2FA8CF37BB9D1E9062301F1200182FABD
:100280004CF200F10800A4FA8CF283FA4CF3A2FAC3
:100290008CF3002BC6D0002A04BF04301A4612BAD1
:1002A000B2FA82F2FDE8024500EBD2007047D1E9D4
:1002B000002304F00305C4F100004FEAC50514F063
:1002C000040F91F840F00CFA05F562EA05021CBF34
:1002D00063EA050362464FF00004A9E7000000004E
:1002E00001F0FF01102A2BDB10F0070F08D010F8E7
:1002F000013B013A8B422DD010F0070F42B3F6D1EB
:10030000F0B441EA012141EA014122F007047FF003
:1003100000070023F0E80256083C85EA010586EA5A
:10032000010685FA47F5A3FA87F586FA47F6A5FA96
:1003300087F68EB9EED1F0BC01F0FF0102F00702A2
:1003400032B110F8013B013A83EA010313B1F8D14D
:100350000020704701387047002D06BF354603382E
:10036000073815F0010F07D1013015F4807F02BF67
:10037000013015F4C03F0130F0BC0138704700BFB8
:10038000844641EA000313F003036DD1403A41D3A0
:1003900051F8043B40F8043B51F8043B40F8043B5F
:1003A00051F8043B40F8043B51F8043B40F8043B4F
:1003B00051F8043B40F8043B51F8043B40F8043B3F
:1003C00051F8043B40F8043B51F8043B40F8043B2F
:1003D00051F8043B40F8043B51F8043B40F8043B1F
:1003E00051F8043B40F8043B51F8043B40F8043B0F
:1003F00051F8043B40F8043B51F8043B40F8043BFF
:1004000051F8043B40F8043B51F8043B40F8043BEE
:10041000403ABDD2303211D351F8043B40F8043B8E
:1004200051F8043B40F8043B51F8043B40F8043BCE
:1004300051F8043B40F8043B103AEDD20C3205D39E
:1004400051F8043B40F8043B043AF9D2043208D096
:10045000D2071CBF11F8013B00F8013B01D30B8808
:1004600003806046704700BF082A13D38B078DD0E6
:1004700010F003038AD0C3F10403D21ADB071CBFB8
:1004800011F8013B00F8013B80D331F8023B20F822
:10049000023B7BE7043AD9D3013A11F8013B00F85B
:1004A000013BF9D20B7803704B7843708B788370E3
:1004B0006046704753B94AB9002908BF00281CBFDD
:1004C0004FF0FF314FF0FF3000F00CB8ADF1080CE9
:1004D0006DE904CE06F082F8DDF804E0DDE90223E0
:1004E00004B07047704700BF10B5054C227832B990
:1004F000044B13B10448AFF300800123237010BDF7
:10050000B8090020000000008868000808B5034B07
:100510001BB103490348AFF3008008BD0000000091
:10052000BC0900208868000810B504460E4B1878F6
:100530004FF47A73B3FBF0F30C4A1068B0FBF3F09E
:1005400000F09CF868B90F2C01D901200AE00022C4
:1005500021464FF0FF3000F051F8054B1C600020A1
:1005600000E0012010BD00BF0000002008000020B6
:100570000400002008B5032000F02EF80020FFF74B
:10058000D3FF01F0F7FF002008BD0000034A116807
:10059000034B1B780B441360704700BF0C0A00200C
:1005A00000000020014B1868704700BF0C0A0020B3
:1005B00038B50446FFF7F6FF0546B4F1FF3F02D019
:1005C000044B1B781C44FFF7EDFF401BA042FAD3FD
:1005D00038BD00BF000000200649CB6823F4E0636B
:1005E0001B041B0C000200F4E0600343024A1A43A0
:1005F000CA60704700ED00E00000FA0530B4154B0A
:10060000DB68C3F30223C3F10704042C28BF0424CE
:100610001D1D062D14D9033B4FF0FF3505FA04F4D8
:1006200021EA0401994005FA03F322EA030319437E
:10063000002807DB0901C9B2074B195430BC7047C9
:100640000023E9E700F00F000901C9B2034B195478
:10065000F4E700BF00ED00E000E400E014ED00E08E
:10066000002807DB00F01F02400901239340024AE3
:1006700042F82030704700BF00E100E00138B0F1DF
:10068000807F0AD2064B5860064AF02182F8231078
:100690000020986007221A6070470120704700BF51
:1006A00010E000E000ED00E000230F2B00F2E380FB
:1006B000F0B482B039E0092200E00022B2403A43AF
:1006C00002346D4E46F824206C4A1468EA4324EA4A
:1006D00005064F6817F4803F01D045EA0406674CD1
:1006E0002660646802EA04064F6817F4003F01D0F0
:1006F00045EA0406614C6660A46802EA04064F6895
:1007000017F4801F01D045EA04065C4CA660E4683B
:1007100022404E6816F4001F01D045EA0402574CEF
:10072000E26001330F2B00F2A38001229A400C6893
:1007300004EA020532EA0404F3D14C68122C18BF13
:10074000022C10D1DE08083650F826C003F007044A
:10075000A7000F24BC402CEA040C0C69BC4044EAFE
:100760000C0440F82640D0F800C05E000324B440DA
:10077000E7432CEA040C4C6804F00304B44044EA58
:100780000C0404604C6804F1FF3C112C18BFBCF150
:10079000010F01D9122C10D1846807EA040CCC682F
:1007A000B44044EA0C048460446824EA02024C68C1
:1007B000C4F300149C4014434460C26817408A6824
:1007C000B2403A43C2604A6812F0805FA9D02C4A16
:1007D000546C44F480445464526C02F4804201929C
:1007E000019A9C08A61C244A52F8267003F00302C2
:1007F00096000F22B24027EA0207224A90423FF4B5
:100800005CAF02F58062904222D002F58062904295
:1008100020D002F5806290421ED002F580629042A4
:100820001CD002F5806290421AD002F5806290429C
:1008300018D002F58062904216D002F58062904294
:1008400014D002F5806290423FF435AF0A2235E7BA
:10085000012233E7022231E703222FE704222DE7AA
:1008600005222BE7062229E7072227E7082225E7AA
:1008700002B0F0BC7047704700380140003C0140B6
:1008800000380240000002400369194201D00120F3
:100890007047002070470AB1816170470904816187
:1008A0007047436931EA030301D08161704709044D
:1008B0008161704710B582B01B4B1A6C42F08052B8
:1008C0001A641B6C03F080530193019B174A136851
:1008D00043F480331360FFF765FE0446134B5B68F7
:1008E00013F4803F08D1FFF75DFE001BB0F57A7F5F
:1008F000F4D9032002B010BD0C4A136843F400334E
:100900001360FFF74FFE0446084B5B6813F4003F8B
:1009100007D1FFF747FE001BB0F57A7FF4D903201B
:10092000E8E70020E6E700BF003802400070004022
:10093000002800F0DA8170B582B00446036813F035
:10094000010F29D0A74B9B6803F00C03042B1AD08E
:10095000A44B9B6803F00C03082B0FD06368B3F51E
:10096000803F40D0002B54D19E4B1A6822F4803235
:100970001A601A6822F480221A6039E0994B5B6889
:1009800013F4800FEAD0974B1B6813F4003F03D099
:100990006368002B00F0AB81236813F0020F74D062
:1009A000904B9B6813F00C0F5ED08E4B9B6803F04E
:1009B0000C03082B53D0E368002B00F08980894A90
:1009C000136843F001031360FFF7ECFD0546854B08
:1009D0001B6813F0020F72D1FFF7E4FD401B0228E1
:1009E000F5D9032088E17F4A136843F4803313600C
:1009F00063682BB3FFF7D6FD05467A4B1B6813F4EB
:100A0000003FC9D1FFF7CEFD401B6428F5D9032074
:100A100072E1B3F5A02F09D0724B1A6822F480322C
:100A20001A601A6822F480221A60E1E76D4B1A6896
:100A300042F480221A601A6842F480321A60D7E7C2
:100A4000FFF7B0FD0546674B1B6813F4003FA3D0CA
:100A5000FFF7A8FD401B6428F5D903204CE1614B4A
:100A60005B6813F4800FA6D15E4B1B6813F0020F76
:100A700003D0E368012B40F03C815A4A136823F00D
:100A8000F803216943EAC1031360236813F0080FD8
:100A900046D0636983B3534A536F43F001035367EE
:100AA000FFF780FD05464F4B5B6F13F0020F37D108
:100AB000FFF778FD401B0228F5D903201CE1494AC5
:100AC000136823F0F803216943EAC1031360DCE7EC
:100AD000444A136823F001031360FFF763FD0546E2
:100AE000404B1B6813F0020FCFD0FFF75BFD401B9C
:100AF0000228F5D90320FFE03A4A536F23F001039F
:100B00005367FFF74FFD0546364B5B6F13F0020F3F
:100B100006D0FFF747FD401B0228F5D90320EBE084
:100B2000236813F0040F7DD02E4B1B6C13F0805FF5
:100B30000BD12C4B1A6C42F080521A641B6C03F0E0
:100B400080530193019B012500E00025264B1B6883
:100B500013F4807F0ED0A368012B1FD0002B35D15A
:100B6000204B1A6F22F001021A671A6F22F004025A
:100B70001A6718E01C4A136843F480731360FFF788
:100B800011FD0646184B1B6813F4807FE3D1FFF775
:100B900009FD801B6428F5D90320ADE0114A136FCD
:100BA00043F001031367A36853B3FFF7FBFC06464A
:100BB0000C4B1B6F13F0020F33D1FFF7F3FC801BBC
:100BC00041F288339842F3D9032095E0052B0DD0EC
:100BD000044B1A6F22F001021A671A6F22F0040206
:100BE0001A67E0E70038024000700040444B1A6F7B
:100BF00042F004021A671A6F42F001021A67D2E744
:100C0000FFF7D0FC06463E4B1B6F13F0020F08D0D7
:100C1000FFF7C8FC801B41F288339842F3D90320C8
:100C20006AE0F5B9A369002B65D0354A926802F0F5
:100C30000C02082A62D0022B19D0314A136823F023
:100C400080731360FFF7AEFC04462D4B1B6813F056
:100C5000007F48D0FFF7A6FC001B0228F5D903202F
:100C60004AE0274A136C23F080531364DAE7244ADE
:100C7000136823F080731360FFF794FC0546204B44
:100C80001B6813F0007F06D0FFF78CFC401B022886
:100C9000F5D9032030E0E369226A1343626A43EA2C
:100CA0008213A26A5208013A43EA0243E26A43EA23
:100CB0000263226B43EA0273114A5360136843F0E4
:100CC00080731360FFF76EFC04460D4B1B6813F036
:100CD000007F06D1FFF766FC001B0228F5D9032030
:100CE0000AE0002008E0002006E001207047012013
:100CF00002E0012000E0002002B070BD0120FBE70F
:100D000000380240F8B52D4B9B6803F00C03082B0C
:100D100001D02B48F8BD294B5A6802F03F025B68AE
:100D200013F4800F28D0254B5B68C3F38813580158
:100D30000021C01A61F100018E0146EA9066870128
:100D40003C1A66EB0105E90041EA5471E000C01865
:100D500041F100018B0243EA905384022046194678
:100D60000023FFF7A7FB154B5B68C3F30143013377
:100D70005B00B0FBF3F0CDE7104B5B68C3F3881367
:100D80005C010025E41A65F10005AE0146EA9466AF
:100D9000A701381B66EB0501CC0044EA5074C5007E
:100DA000E81844F100018B0243EA90538402204684
:100DB00019460023FFF77EFBD5E700BF003802404D
:100DC0000024F400002800F09F8070B50D46044612
:100DD000514B1B6803F00F038B420BD24E4A136832
:100DE00023F00F030B431360136803F00F038B42D0
:100DF00040F08C80236813F0020F17D013F0040F1B
:100E000004D0464A936843F4E0539360236813F098
:100E1000080F04D0414A936843F4604393603F4A0B
:100E2000936823F0F003A1680B439360236813F0E9
:100E3000010F31D06368012B20D0022B25D0374A17
:100E4000126812F0020F63D034498A6822F003025C
:100E500013438B60FFF7A6FB0646304B9B6803F0FD
:100E60000C036268B3EB820F16D0FFF79BFB801B6D
:100E700041F288339842F0D9032044E0274A1268AF
:100E800012F4003FE0D101203DE0244A126812F044
:100E9000007FD9D1012036E01F4B1B6803F00F0300
:100EA000AB420AD91C4A136823F00F032B4313608B
:100EB000136803F00F03AB422CD1236813F0040F27
:100EC00006D0164A936823F4E053E1680B4393601D
:100ED000236813F0080F07D0104A936823F4604387
:100EE000216943EAC1039360FFF70CFF0B4B9B683A
:100EF000C3F303130A4AD35CD8400A4B186000209E
:100F0000FFF712FB002070BD012070470120FAE7B7
:100F10000120F8E70120F6E7003C024000380240DB
:100F2000F068000808000020014B1868704700BFF7
:100F30000800002008B5FFF7F7FF044B9B68C3F3D8
:100F40008223034AD35CD84008BD00BF003802406A
:100F50000069000808B5FFF7E7FF044B9B68C3F37F
:100F60004233034AD35CD84008BD00BF003802407A
:100F700000690008F0B583B00446066816F0010663
:100F80000DD0B54B9A6822F400029A609A68416BC2
:100F90000A439A60436B002B00F0558100262568B8
:100FA00015F4002511D0AC4AD2F88C3023F440134C
:100FB000E16B0B43C2F88C30E36BB3F5801F00F09C
:100FC0004481002B00F043810025236813F4801F27
:100FD0000FD0A14AD2F88C3023F44003216C0B438C
:100FE000C2F88C30236CB3F5800F00F0328103B966
:100FF0000125236813F0807F00D0012613F0200F15
:1010000040F02C81236813F0100F0CD0924BD3F8D2
:101010008C2022F08072C3F88C20D3F88C20A16B36
:101020000A43C3F88C20236813F4804F08D08A4AFF
:10103000D2F8903023F44033616E0B43C2F8903005
:10104000236813F4004F08D0834AD2F8903023F479
:101050004023A16E0B43C2F89030236813F4803F05
:1010600008D07D4AD2F8903023F44013E16E0B4350
:10107000C2F89030236813F4003F08D0764AD2F8C3
:10108000903023F44003216F0B43C2F89030236863
:1010900013F0400F08D0704AD2F8903023F00303C9
:1010A000616C0B43C2F89030236813F0800F08D0B6
:1010B000694AD2F8903023F00C03A16C0B43C2F8BC
:1010C0009030236813F4807F08D0634AD2F89030C0
:1010D00023F03003E16C0B43C2F89030236813F423
:1010E000007F08D05C4AD2F8903023F0C003216D15
:1010F0000B43C2F89030236813F4806F08D0564A2F
:10110000D2F8903023F44073616D0B43C2F89030F5
:10111000236813F4006F08D04F4AD2F8903023F4BC
:101120004063A16D0B43C2F89030236813F4805FD5
:1011300008D0494AD2F8903023F44053E16D0B4374
:10114000C2F89030236813F4005F08D0424AD2F806
:10115000903023F44043216E0B43C2F89030236853
:1011600013F4800F08D03C4AD2F8903023F080630B
:10117000A16F0B43C2F89030236813F4001F0DD009
:10118000354AD2F8903023F00063E16F0B43C2F888
:101190009030E36FB3F1006F00F0C680236813F066
:1011A000080F00D0012513F4802F08D02A4AD2F866
:1011B000903023F04073616F0B43C2F89030236886
:1011C00013F4000F09D0244AD2F8903023F0805352
:1011D000D4F880100B43C2F89030236813F0806F6E
:1011E00009D01D4AD2F8903023F00053D4F884106F
:1011F0000B43C2F89030236813F0006F09D0164AF1
:10120000D2F88C3023F00073D4F888100B43C2F866
:101210008C30236813F0805F09D00F4AD2F88C30ED
:1012200023F08063D4F88C100B43C2F88C30002E6E
:101230007CD12368B3F1007F78D0012D00F00981C3
:10124000002003B0F0BD0126A9E60126B9E601257C
:10125000BBE60126CBE600BF00380240B74B1A6C54
:1012600042F080521A641B6C03F080530193019B7F
:10127000B34A136843F480731360FFF793F907468A
:10128000AF4B1B6813F4807F06D1FFF78BF9C01BAF
:101290006428F5D90320D4E7A84B1B6F13F44073DF
:1012A00015D0226B02F440729A4210D0A34B1A6FF1
:1012B00022F44072196F41F480311967196F21F4DB
:1012C000803119671A671B6F13F0010F12D1236B5E
:1012D00003F44072B2F5407F1DD0984A936823F41E
:1012E000F813936095490B6F226BC2F30B02134303
:1012F0000B6787E6FFF756F90746904B1B6F13F015
:10130000020FE4D1FFF74EF9C01B41F28833984237
:10131000F3D9032095E78948826822F4F8128949B5
:1013200019400A438260DDE7012537E7834A1368E5
:1013300023F080631360FFF735F906467F4B1B6887
:1013400013F0006F06D0FFF72DF9801B6428F5D944
:10135000032076E7236813F0010F13D0636B8BB97A
:10136000764AD2F88430D2F88410606803F44033AF
:1013700043EA801301F070610B43A16843EA0173F3
:10138000C2F88430236813F4002F03D0E26BB2F567
:10139000801F06D013F4801F1ED0236CB3F5800F7E
:1013A0001AD1664AD2F88430D2F88410606803F407
:1013B000403343EA8013E06843EA006301F0E04110
:1013C0000B43C2F88430D2F88C3023F01F03616ADB
:1013D00001390B43C2F88C30236813F0807F11D0A1
:1013E000564AD2F88400D2F88410666823691B0438
:1013F00043EA861300F07060034301F0E0410B43C1
:10140000C2F88430236813F0007F0DD0626823692E
:101410001B0443EA8213E26843EA0263A26843EAD8
:101420000273464AC2F88430444A136843F080632A
:101430001360FFF7B7F80646404B1B6813F0006FC8
:101440007FF4FBAEFFF7AEF8801B6428F4D90320CD
:10145000F7E63A4A136823F080531360FFF7A2F8C7
:101460000546364B1B6813F0005F06D0FFF79AF86D
:10147000401B6428F5D90320E3E6236813F4002F0A
:1014800001D0E26B22B113F4801F1DD0236CDBB9B5
:101490002A4AD2F88830D2F88810606903F44033C1
:1014A00043EA8013A06943EA006301F0E0410B4383
:1014B000C2F88830D2F88C3023F4F853A16A01398D
:1014C00043EA0123C2F88C30236813F4001F03D0D1
:1014D000E36FB3F1006F37D0236813F0080F19D012
:1014E000164AD2F88810D2F88830606903F4403385
:1014F00043EA801301F070610B43E16943EA017331
:10150000C2F88830D2F88C3023F44033E16A0B43C0
:10151000C2F88C30094A136843F080531360FFF718
:1015200041F80446054B1B6813F0005F1FD1FFF71D
:1015300039F8001B6428F5D9032082E60038024000
:1015400000700040FFFCFF0F0A4AD2F88800D2F872
:1015500088106569236A1B0443EA851300F07060F4
:10156000034301F0E0410B43C2F88830B4E70020A8
:1015700067E600BF00380240022380F83D30026871
:101580009168084B0B40062B18BFB3F5803F03D082
:10159000136843F001031360012380F83D300020FD
:1015A000704700BF07000100022380F83D30036848
:1015B000196A41F21112114208D1196A40F24442EB
:1015C000114203D11A6822F001021A60012380F847
:1015D0003D300020704700000268D36843F00103EB
:1015E000D36002689168064B0B40062B18BFB3F519
:1015F000803F03D0136843F001031360002070475D
:1016000007000100704770477047704710B50446E7
:1016100003681A6912F0020F11D0DA6812F0020F93
:101620000DD06FF002021A610123037703689B69F2
:1016300013F0030F79D0FFF7E6FF00232377236829
:101640001A6912F0040F12D0DA6812F0040F0ED0EB
:101650006FF004021A610223237723689B6913F455
:10166000407F68D02046FFF7CEFF00232377236812
:101670001A6912F0080F12D0DA6812F0080F0ED0B3
:101680006FF008021A61042323772368DB6913F0E3
:10169000030F57D02046FFF7B6FF002323772368B8
:1016A0001A6912F0100F12D0DA6812F0100F0ED073
:1016B0006FF010021A61082323772368DB6913F4A3
:1016C000407F46D02046FFF79EFF00232377236804
:1016D0001A6912F0010F03D0DA6812F0010F3FD13E
:1016E00023681A6912F0800F03D0DA6812F0800FB5
:1016F0003DD123681A6912F4807F03D0DA6812F0B2
:10170000800F3BD123681A6912F0400F03D0DA68CA
:1017100012F0400F39D123681A6912F0200F03D05C
:10172000DA6812F0200F37D110BDFFF76BFF2046AB
:10173000FFF76AFF81E72046FFF764FF2046FFF7C7
:1017400063FF92E72046FFF75DFF2046FFF75CFF4F
:10175000A3E72046FFF756FF2046FFF755FFB4E703
:101760006FF001021A61204600F0CAFEB8E76FF080
:1017700080021A61204600F0EAF8BAE76FF480723E
:101780001A61204600F0E4F8BCE76FF040021A61ED
:101790002046FFF73AFFBEE76FF020021A612046AD
:1017A00000F0D4F8C0E7000070B403683A4CA042DF
:1017B00014BF00240124B0F1804F14BF224644F02E
:1017C0000102AAB9354DA84214BF00250125344EA7
:1017D000B0420DD065B905F1804505F58235A842C6
:1017E00014BF0025012506F50066B04200D01DB1EA
:1017F00023F070034D682B43002A33D1274A9042CF
:1018000014BF00220122264DA8422BD052BB02F168
:10181000804202F58232904214BF0022012205F577
:101820000065A8421ED0EAB91E4A904214BF0022A9
:10183000012205F59A35A84214D09AB91A4A904265
:1018400014BF0022012205F50065A8420AD04AB95A
:10185000164A904214BF00220122A5F59635A842EF
:1018600000D01AB123F44073CA68134323F08003F5
:101870004A69134303608A68C2620A6882620C4B39
:10188000984214BF234644F001030BB10B69036374
:101890000123436170BC7047000001400008004014
:1018A00000040040004401400018004000200040B7
:1018B00000040140B0B110B5044690F83D3063B16A
:1018C000022384F83D30214651F8040BFFF76CFFEA
:1018D000012384F83D30002010BD80F83C3000F03A
:1018E00061FEEDE70120704790F83C30012B27D0D6
:1018F00070B4012380F83C30022380F83D30036847
:101900005A689D680F4E104CA34218BFB34203D1D2
:1019100022F470024C68224322F070020C682243C9
:1019200025F08004896821435A6003689960012387
:1019300080F83D30002380F83C30184670BC70477A
:1019400002207047000001400004014070477047CA
:101950007047000038B50446836802691343426942
:101960001343C2691343016808689F4A0240134346
:101970000B602268536823F44053E1680B435360C3
:10198000A269236A1A4321688B6823F430631343E6
:101990008B602368954A934219D0954A934229D087
:1019A000944A93423ED0944A934262D0934A9342DF
:1019B00071D0934A934200F08380924A934200F0A0
:1019C0009480914A934200F0A58010253AE08F4B15
:1019D000D3F8903003F00303032B09D8DFE803F0BA
:1019E0000204AE0601252DE004252BE0082529E0A0
:1019F000102527E0854BD3F8903003F00C030C2B17
:101A00000ED8DFE803F0070D0D0D090D0D0D9D0D2E
:101A10000D0D0B00002515E0042513E0082511E04D
:101A200010250FE0794BD3F8903003F03003202BD2
:101A300000F0888019D8002B00F08680102B40F031
:101A400085800425E369B3F5004F00F0AB80082DD5
:101A500000F24081DFE815F00701180122013E0184
:101A60002B013E013E013E013501302B70D108258E
:101A7000E8E7664BD3F8903003F0C003802B69D0C1
:101A800005D8002B68D0402B68D10425DAE7C02B9D
:101A900066D10825D6E75D4BD3F8903003F4407348
:101AA000B3F5007F5ED006D8002B5DD0B3F5807F04
:101AB0005CD10425C6E7B3F5407F59D10825C1E7BD
:101AC000524BD3F8903003F44063B3F5006F51D01C
:101AD00006D8002B50D0B3F5806F4FD10425B1E765
:101AE000B3F5406F4CD10825ACE7484BD3F89030A4
:101AF00003F44053B3F5005F44D006D8002B43D025
:101B0000B3F5805F42D104259CE7B3F5405F3FD138
:101B1000082597E73D4BD3F8903003F44043B3F5E5
:101B2000004F37D005D8BBB3B3F5804F36D104256D
:101B300088E7B3F5404F33D1082583E7022581E7D5
:101B400002257FE702257DE700257BE7102579E761
:101B5000102577E7022575E7002573E7102571E763
:101B600010256FE702256DE700256BE7102569E773
:101B7000102567E7022565E7012563E7102561E782
:101B800010255FE702255DE700255BE7102559E793
:101B9000102557E7022555E7002553E7102551E7A3
:101BA00010254FE7082D5BD8DFE805F005323D5AD8
:101BB000465A5A5A5100FFF7BDF96268530803EBC1
:101BC0004003B3FBF2F39BB2A3F110014FF6EF72A7
:101BD000914200F282809AB222F00F02C3F34203D4
:101BE00013432268D3607BE0F369FFEF00100140EC
:101BF0000044004000480040004C004000500040BD
:101C00000014014000780040007C00400038024091
:101C1000FFF7A0F96268530803EB4003B3FBF2F34C
:101C20009BB20025D0E76268304B03EB5203B3FB55
:101C3000F2F39BB20025C7E7FFF764F86268530828
:101C400003EB4003B3FBF2F39BB20025BCE76268F1
:101C5000530803F58033B3FBF2F39BB20025B3E7DF
:101C600001250023B0E7FFF765F9626800EB520336
:101C7000B3FBF2F39BB2A3F110014FF6EF72914266
:101C80002DD82268D3602BE0FFF764F9626800EB7F
:101C90005203B3FBF2F39BB20025ECE76268144BEE
:101CA00003EB5203B3FBF2F39BB20025E3E7FFF72C
:101CB00029F8626800EB5203B3FBF2F39BB20025F4
:101CC000D9E76268530803F50043B3FBF2F39BB214
:101CD0000025D0E701250023CDE7012500E00125FF
:101CE000002323666366284638BD00BF0048E8012C
:101CF0000024F400436A13F0010F06D00268536811
:101D000023F40033816A0B435360436A13F0020FDC
:101D100006D00268536823F48033C16A0B435360D2
:101D2000436A13F0040F06D00268536823F480233B
:101D3000016B0B435360436A13F0080F06D002682F
:101D4000536823F40043416B0B435360436A13F021
:101D5000100F06D00268936823F48053816B0B4305
:101D60009360436A13F0200F06D00268936823F44F
:101D70000053C16B0B439360436A13F0400F0AD0CA
:101D80000268536823F48013016C0B435360036CA7
:101D9000B3F5801F0BD0436A13F0800F06D00268A2
:101DA000536823F40023816C0B435360704702682F
:101DB000536823F4C003416C0B435360EBE72DE9F8
:101DC000F84305460F4616469946DDF820802C68F4
:101DD000E46937EA04030CBF01240024B4421DD196
:101DE000B8F1FF3FF3D0FEF7DDFBA0EB0900404563
:101DF00002D8B8F1000FEAD12A68136823F4D0732F
:101E000013602A68936823F00103936020236B67B3
:101E1000AB67002385F87030032000E00020BDE8A8
:101E2000F8832DE9F04182B01E46436F202B58D134
:101E300004460D469046B2FA82F35B09002908BFBA
:101E40000123002B51D190F87030012B4FD001238A
:101E500080F870300023C36721234367FEF7A2FB9D
:101E60000746A4F85080A4F85280A368B3F5805FB9
:101E700002D04FF0000810E023690BB34FF00008C8
:101E80000BE038F8023B2268C3F308039362B4F80E
:101E90005220013A92B2A4F85220B4F852309BB2C8
:101EA0008BB100963B46002280212046FFF787FF3A
:101EB000F8B9002DE5D015F8012B23689A62E6E702
:101EC000A8460025E9E700963B460022402120462F
:101ED000FFF775FF78B920236367002384F870301B
:101EE00000E0022002B0BDE8F0810120FAE7022004
:101EF000F8E70320F6E70320F4E710B582B00446C4
:101F00000023C367FEF74EFB23681B6813F0080F1E
:101F100007D120236367A367002084F8700002B014
:101F200010BD6FF07E430093034600224FF4001172
:101F30002046FFF744FF0028EBD00320EFE768B30B
:101F400010B50446436F03B3242363672268136804
:101F500023F0010313602046FFF7FCFC012813D097
:101F6000636ABBB92268536823F4904353602268C4
:101F7000936823F02A0393602268136843F00103F7
:101F800013602046FFF7B9FF10BD80F8703000F0F5
:101F900041FBD9E72046FFF7ADFEE3E7012070479C
:101FA0002DE9F04F8DB000240794089409940A9409
:101FB0000B94694B1A6B42F004021A631A6B02F01D
:101FC00004020192019A1A6B42F080021A631A6BA2
:101FD00002F080020292029A1A6B42F001021A6326
:101FE0001A6B02F001020392039A1A6B42F002028A
:101FF0001A631A6B02F002020492049A1A6B42F0FE
:1020000008021A631A6B02F008020592059A1A6B0D
:1020100042F040021A631B6B03F040030693069BD9
:10202000DFF848B1224644F281015846FEF733FCFE
:102030004A4F224640213846FEF72DFCDFF830910A
:1020400022464FF480514846FEF725FC4FF40053DA
:102050000793434B0893099407A94846FEF724FBCE
:102060003223079302260896099403250A954FF018
:102070000B08CDF82C8007A94846FEF715FB8623F0
:102080000793089609940A95CDF82C8007A935483E
:10209000FEF70AFB44F2810307934FF0010ACDF8E3
:1020A00020A009940A9407A95846FEF7FDFA4FF4B8
:1020B00000530793089609940A95CDF82C8007A938
:1020C0005846FEF7F1FA40230793CDF820A0099473
:1020D0000A9407A93846FEF7E7FA80230793089485
:1020E000099407A93846FEF7DFFA4FF4E85307933F
:1020F000089609940A950A230B9307A91948FEF735
:10210000D3FA4FF4007307930894099407A915486C
:10211000FEF7CAFA4FF480530793CDF820A0099434
:102120000A9507A94846FEF7BFFA042307930894C7
:10213000099407A90C48FEF7B7FA4FF42053079308
:10214000089609940A95CDF82C8007A93846FEF721
:10215000ABFA0DB0BDE8F08F003802400018024025
:102160000000111000000240000C02400004024078
:102170000008024030B585B0002501950295039511
:102180000A4C0B4B2360D7236360A5600323E360F5
:102190008023A3612046FFF78DFB0195039501A9DC
:1021A0002046FFF7A1FB05B030BD00BF040B0020A7
:1021B0000010004030B585B00025019502950395CB
:1021C0000A4C0B4B23604EF65F236360A56040F220
:1021D0000773E360A5612046FFF76CFB019503954B
:1021E00001A92046FFF780FB05B030BD440B00205D
:1021F0000014004008B50948094B03604FF4E1336F
:10220000436000238360C36003610C2242618361E9
:10221000C36103624362FFF792FE08BD100A00200B
:102220000048004030B5B9B0342200212BA800F09E
:10223000D5FA002426942794289429942A9490224D
:10224000214602A800F0CAFA1E4B1A6C42F08052D6
:102250001A641B6C03F080530093009B1A4B1A689E
:1022600042F440421A601B6803F440430193019B0F
:1022700002252B9501232E9310232F933195329411
:1022800008233393D8233493359536952BA8FEF73E
:102290004FFBFEF70FFB0F232693279528944FF44F
:1022A000A05329934FF480532A93072126A8FEF7C1
:1022B00089FD4FF480730293159402A8FEF75AFE2D
:1022C00039B030BD003802400070004008B5FEF75C
:1022D00051F9FFF7A7FFFFF763FEFFF74BFFFFF78B
:1022E00069FFFFF787FF2A4C0C2121604FF4FA7336
:1022F000E360284B63610023A3642748A0664FF482
:102300008053A4F87030254BE3660423A4F87230A0
:102310000122FEF7C0FA01212161214D65662148A5
:10232000FEF7BFFA2846FFF727F92846FFF754F9CA
:10233000C820FEF73DF91B4C80212046FEF7B1FA7C
:1023400001212046FEF7ADFAC820FEF731F94FF41F
:1023500080412046FEF7A5FA80212046FEF7A1FA2B
:10236000C820FEF725F94FF480412046FEF799FA80
:1023700080212046FEF795FAC820FEF719F9802142
:102380002046FEF78EFA01212046FEF78AFACFE7B3
:10239000900A002060E3160000080240000C024092
:1023A000440B00200004024038B505460C460846A0
:1023B000FDF726FF4FF6FF7382B221462846FFF74E
:1023C00030FD38BD10B5044601234360B0F87210EB
:1023D000C06EFEF759FAA06002490348FFF7E4FF18
:1023E00010BD00BFA0680008100A002006EE900A89
:1023F0000A4611B9B7EE000B70470023B7EE000B89
:10240000934205DAB8EEE67B20EE070B0133F7E7DF
:10241000704770B52DED028B06460D46002408EE80
:10242000104A00E00134AC420FDA56F82430012B98
:10243000F8D1291B01390220FFF7D8FFB8EEC87B7D
:1024400037EE007BBDEEC78BECE718EE100ABDEC53
:10245000028B70BD30B5C1B00446C36C01688B42BD
:102460001FDA036993B10022026189B2806EFEF720
:1024700012FAE36C002B12DDB4F87210E06EFEF776
:1024800003FAE36C063344F8230008E001220261FA
:1024900089B2806EFEF7FFF9E36C0133E36441B06B
:1024A00030BDC16409B31830FFF7B3FF20660025C3
:1024B0000095FC22294601A800F090F9226E0C49F3
:1024C000684600F0DBF969460A48FFF76DFF0A4CE1
:1024D0002046FFF769F823685D62084C2046FFF745
:1024E0004BF82046FFF778F8D9E7FFF76BFFD6E700
:1024F000C0680008100A0020040B0020440B0020D4
:1025000030B5B3B0044600210091C42201A800F008
:1025100065F9134B1B685A6A124D2B685B6A1249A6
:10252000684600F0ABF969461048FFF73DFFAC4242
:1025300004D00B4B9C420FD033B030BD2846FFF780
:1025400033F82B6800225A62054D2846FFF714F82D
:102550002846FFF741F8ECE70548FFF77BFFEBE77C
:10256000040B0020440B0020D4680008100A00204F
:10257000900A002082B00A4B1A6C42F080521A6412
:102580001A6C02F080520092009A5A6C42F4804217
:102590005A645B6C03F480430193019B02B0704763
:1025A0000038024000B583B00368174A934205D053
:1025B000164A934215D003B05DF804FB144B1A6C15
:1025C00042F010021A641B6C03F010030093009B8E
:1025D000002211463620FEF711F83620FEF740F8AB
:1025E000E9E70B4B1A6C42F020021A641B6C03F0F3
:1025F00020030193019B002211463720FDF7FEFFC7
:102600003720FEF72DF8D6E70010004000140040F8
:102610000038024000B589B000230393049305936A
:10262000069307930268144B9A4202D009B05DF8F2
:1026300004FB03F5F8331A6C42F480221A641A6C16
:1026400002F480220192019A1A6B42F008021A6386
:102650001B6B03F008030293029B4FF44073039338
:1026600002230493032306930723079303A9034834
:10267000FEF71AF8DAE700BF00480040000C0240FD
:102680007047FEE7FEE7FEE7FEE7704770477047DA
:1026900008B5FDF77BFF08BD08B50248FEF7B6FF99
:1026A00008BD00BF040B002008B50248FEF7AEFFCE
:1026B00008BD00BF440B002010B40F4AD2F8883088
:1026C00043F47003C2F888300C4B196841F00101E3
:1026D0001960002098601C68094921401960094967
:1026E0005960196821F480211960D8604FF00063A7
:1026F00093605DF8044B704700ED00E00038024045
:10270000FFFFF6FE10300024DFF834D0002103E094
:102710000C4B5B58435004310B480C4B42189A4207
:10272000F6D30B4A02E0002342F8043B094B9A42DD
:10273000F9D3FFF7C1FF00F02DF8FFF7C7FD704791
:1027400000000820A46B000800000020B809002049
:10275000B8090020AC0B0020FEE700000023014672
:102760001A46184601F02CBD38B5084B084D5B1BC6
:102770009C1007D0043B1D44013C55F80439984790
:10278000002CF9D1BDE8384004F084B8A46B0008EF
:10279000A06B000870B50D4E0D4D761BB61006D01F
:1027A000002455F8043B01349847A642F9D1094E5C
:1027B000094D761B04F068F8B61006D0002455F8D1
:1027C000043B01349847A642F9D170BD986B0008CC
:1027D000986B0008A06B0008986B0008F0B486079F
:1027E00046D0541E002A3CD0CAB2034601E0013C48
:1027F00037D303F8012B9D07F9D1032C2AD9CDB289
:1028000045EA05250F2C45EA054534D9A4F1100207
:1028100022F00F0C03F120071609674403F11002A0
:1028200042E9045542E902551032BA42F8D1721C0D
:1028300014F00C0F03EB021204F00F0613D0331F39
:1028400023F003030433134442F8045B9342FBD1A7
:1028500006F003042CB1CAB21C4403F8012B9C42BD
:10286000FBD1F0BC704734461346002CF3D1F8E797
:1028700014460346C1E71A462646E0E70EB430B5D3
:102880009CB01FAB0C4C0D4D53F8042B019301462B
:1028900002910691206802A96FF00044CDE9044539
:1028A000079400F00DF8029B00221A701CB0BDE8DE
:1028B000304003B0704700BF0C0000200802FFFF4B
:1028C0002DE9F04F2DED068BCDB08A469046099349
:1028D000834602F0EDFC036812931846FDF790FC66
:1028E000BAF80C3011901D0604D5DAF81030002B20
:1028F00000F057870023CDE92133CDE91333CDE92B
:1029000016330F9315930693464623AB20939946AF
:102910005346DA469B4633789FED5F8B9FED609B75
:10292000002B00F04481344604E014F8013F002BF2
:1029300000F08F80252BF8D1A51B40F08D802378E7
:10294000002B00F03481002307938DF8633003934C
:102950004FF0FF32631C677805922B254FF020085B
:102960001C460134A7F120035A2B00F29D80DFE8BA
:1029700013F0D2029B009B00CC029B009B009B00AB
:10298000AB029B009B009A0206029B000002E10240
:102990009B00DB025B005B005B005B005B005B009D
:1029A0005B005B005B009B009B009B009B009B000F
:1029B0009B009B0034019B009F017D023401340188
:1029C00034019B009B009B009B0077029B009B00B7
:1029D00038029B009B009B00AD019B000A029B00FC
:1029E0009B00F5069B009B009B009B009B009B00AF
:1029F0009B009B0034019B009F01D50134013401F1
:102A000034014D02D5016A009B006E029B00560204
:102A1000ED06FB026A009B00AD016E00F0069B0014
:102A20009B00CB069B006E00A7F13003002214F838
:102A3000017B02EB820203EB4202A7F13003092B78
:102A4000F5D907928EE7039B43F020030393277881
:102A500087E7A51B00F0AB80DDE9213201332A4472
:102A6000072BCDE92132C9F80060C9F8045006DC13
:102A700009F10809069A23782A44069260E720AAF9
:102A80005946504603F0B8FA002841F0E4820DF1AF
:102A90008C09EFE7AFF300800000000000000000A9
:102AA000FFFFFFFFFFFFEF7F0C94002F7FD000237D
:102AB0000125194604958DF8CC708DF86330089186
:102AC00005910D9110910E9133AE039B13F002030B
:102AD0000A9302D0049B02330493039B229A13F0BF
:102AE00084030B9305D1079B04981C1A002C00F358
:102AF000A48071B12199013101320DF163040120EB
:102B00000729CDE92112C9E9004000F3B58309F195
:102B100008090A9B6BB1219B0133023219A80221DB
:102B2000072BCDE92132C9E9000100F3B78309F190
:102B300008090B9B802B00F0C382059B5C1B002CBB
:102B400000F3F782039BD80500F16682219BC9F848
:102B5000006001332A44072B2292C9F804502193C4
:102B600000F36F8309F10809039B590705D5079BFB
:102B700004995C1A002C00F39D83DDE9063104986A
:102B80008142ACBF5B181B180693002A40F0FF82FD
:102B900000232193089B1BB10899504602F07EFA4E
:102BA0000DF18C090C9E3378002B7FF4BCAE5B4694
:102BB000D3469A46229B002B41F0CD81BAF80C30C7
:102BC00013F0400F069B18BF4FF0FF330693069893
:102BD0004DB0BDEC068BBDE8F08F099B0C9407331C
:102BE00023F00703B3EC028BB0EEC87BB4EE497B55
:102BF000F1EE10FA099340F3BE84B5EEC08BF1EE0E
:102C000010FA00F1E6879DF86310AC4EAC4B0398C8
:102C10000022032520F08000049508920390472F9E
:102C2000C8BF1E4605920D9210920E9200293FF4E5
:102C30004CAF049B0133049347E7102C2199DFF834
:102C4000848227DD084641461023A8460D4604E04D
:102C5000103C102C09F1080918DD0130103207284A
:102C6000CDE92102C9E90053F2DD20AA59465046B8
:102C700003F0C2F9002840F09282103C102CDDE9EC
:102C800021020DF18C094FF01003E6DC2B460146C2
:102C900045469846013122440729CDE92112C9E968
:102CA000008400F3B7869DF8631009F1080920E756
:102CB000099B0C9453F8041B8DF8CC1000220125BD
:102CC0001146049509938DF86320F8E60C94099C4D
:102CD00054F8046B4FF000088DF86380002E00F06C
:102CE0007085059A1346013300F04A874146304605
:102CF000FDF7F6FA0890002801F08980089BCDF8CE
:102D000014809D1B434625EAE5729DF863100994E3
:102D1000049208930D9310930E9387E7039B0C94F2
:102D200013F0200F099B00F0AC80073323F007035A
:102D30001946F1E80223099114461D46002A73F151
:102D40000003C0F2CF83059B013300F08582039B13
:102D500023F0800854EA050340F08082059B002B95
:102D600040F08182CDF80C80002305931D464CAEC7
:102D700027E12778039B43F004030393F1E52778C9
:102D80008DF86350EDE5039B0C9443F0100818F0A8
:102D9000200F099B00F09883073323F00703F3E823
:102DA00002450993012300228DF86320059A1146FC
:102DB000013100F0ED8028F08001039154EA050113
:102DC00040F0E480002A40F09C86002BCCD118F023
:102DD000010500F0AE8330238DF82F310DF22F1650
:102DE000EFE0039B0C9443F010030393039B9E06B8
:102DF00040F15C83099B073323F00703F3E80245A6
:102E00000993039B23F480680023CCE72778039B76
:102E1000682F00F0B38443F040030393A1E5099ABF
:102E20000C9452F8043B0992039A900600F15F84D7
:102E3000039AD10600F16C86039A520600F1F886D7
:102E4000039A970540F16486069A1A70AAE62778D5
:102E5000039B6C2F00F08B8443F01003039380E5F9
:102E6000039B277843F0080303937AE5039B0C94B4
:102E700043F010030393039B13F0200F099B7FF48F
:102E800054AF039AD40603F1040100F16D83039B50
:102E9000580640F16383099B0991B3F90040E51797
:102EA00022462B464AE7099B277853F8042B0792C2
:102EB000002AC0F25784099353E500BF0C6900084B
:102EC0001069000850690008504602F0F1F94368A3
:102ED00016931846FDF794F9034650461F4617937C
:102EE00002F0E6F982681592002F3FF4B0AD159B11
:102EF0002778002B3FF435AD1B78002B3FF431AD24
:102F0000039B43F4806303932BE5039B277843F0F3
:102F10000103039325E59DF863302778002B7FF4A8
:102F200020AD8DF863801CE5039B277843F0800378
:102F3000039316E5224612F8017B2A2F01F0138134
:102F4000A7F13003092B144698BF002200F28487B2
:102F500014F8017B02EB820203EB4202A7F130037B
:102F6000092BF5D90592FDE4099B0C9447F6300234
:102F700053F8044BADF86420039A0993C44B1393A0
:102F800042F002080025022378270CE7DDF80C80C8
:102F9000012B00F06381022B4CAE1FD11398230943
:102FA00004F00F0143EA05732A091C461546435CE9
:102FB00006F8013D54EA0503F1D14CABCDF80C8085
:102FC0009D1B002308930D9310930E93059B9DF872
:102FD0006310AB42B8BF2B46049327E6E20842EAEF
:102FE0004572E90804F007030D461446303354EAED
:102FF0000501324606F8013DF0D118F0010FDCD092
:10300000302BDAD03023023A06F8013C4CABCDF835
:103010000C809D1A1646D4E7652F40F3CC80B5EEA0
:10302000408BF1EE10FA40F07D81219B9949C9F85F
:103030000010013301320121072BCDE92132C9F8FB
:10304000041000F32B8509F108091A9B0F998B4294
:1030500080F26A82219B1299C9F800101199C9F86F
:10306000041001330A44072B2292219300F38D832D
:1030700009F108090F9B5C1E002C7FF775AD102C21
:10308000219B40F31885102505E009F10809103C43
:10309000102C40F3108501337F491032072BCDE906
:1030A0002132C9E90015F0DD20AA5946504602F048
:1030B000A3FF002873D1DDE921320DF18C09E6E789
:1030C000079B04995C1A002C7FF737AD102C219BCD
:1030D0001EDD4FF0100804E0103C102C09F1080927
:1030E00016DD01336C491032072BCDE92132C9E9D5
:1030F0000018F1DD20AA5946504602F07DFF002855
:103100004DD1103C102CDDE921320DF18C09E8DCA9
:10311000013361492244072BCDE92132C9E900146A
:1031200000F3E284059B5C1B002C09F108097FF782
:1031300009AD102C219B1DDD4FF0100804E0103C60
:10314000102C09F1080915DD013353491032072B02
:10315000CDE92132C9E90018F1DD20AA59465046CF
:1031600002F04AFFD8B9103C102CDDE921320DF1F4
:103170008C09E9DC013348492244072BCDE921328F
:10318000C9E9001400F3858109F10809DAE420AAED
:103190005946504602F030FF00283FF4F9AC5B4638
:1031A000D3469A46089B002B3FF408AD0899584631
:1031B00001F074FF02E50F9C2198012C02F101023D
:1031C00000F1010309F1080140F32D810120072BD3
:1031D000CDE92132C9F80060C9F8040000F38C8100
:1031E0001198129C01330244072BCDE92132C1E929
:1031F000004000F38D8108310F9CB5EE408B581CC8
:10320000F1EE10FA074604F1FF3401F1080900F06D
:103210001C810136224407280E6022924C602190C6
:1032200000F3A28301F11004981C4946A146149CA6
:103230004C6022441CAB0728229221900B607FF740
:1032400093AC20AA5946504602F0D6FE0028A6D1DB
:10325000229A0DF18C0987E4DDF80C80002D08BF5F
:103260000A2C80F0908330348DF82F41CDF80C80FB
:1032700001250DF22F16A4E620AA5946504602F069
:10328000BBFE00288BD1229A0DF18C0941E400BFCE
:103290001C6900084C6900086069000820AA5946AA
:1032A000504602F0A9FE00287FF479AF229A0DF172
:1032B0008C093EE4102C219BDFF844841FDD10258F
:1032C000464604E0103C102C09F1080916DD0133D4
:1032D0001032072BCDE92132C9E90065F2DD20AAC1
:1032E0005946504602F088FE00287FF458AF103C43
:1032F000102CDDE921320DF18C09E8DCB0460133F8
:103300002244072BCDE92132C9E900847FF735AC8F
:1033100020AA5946504602F06FFE00287FF43FAFC6
:10332000229A2AE41A99002940F38383DDE90E31B9
:103330008B42A8BF0B46002B1C460DDD219BC9F814
:10334000006001332244072B2292C9F804402193E4
:1033500000F3EA8409F108090E9B002CA8BF1B1B8F
:10336000002B1C4600F33C820E9B33441F46039BFC
:103370005B0500F157821A9B0F998B4203DB03997F
:10338000CD0740F14C8421991298C9F8000011989A
:10339000C9F804000131024407292292219100F367
:1033A000E38409F108090F997418E41BCB1A9C42B5
:1033B000A8BF1C46002C0DDD2199C9F80070013111
:1033C000224407292292C9F80440219100F32B8559
:1033D00009F10809002CACBF1C1B1C46002C7FF710
:1033E000C3AB102C219B40F36683102505E009F147
:1033F0000809103C102C40F35E830133BF491032A2
:10340000072BCDE92132C9E90015F0DD20AA594684
:10341000504602F0F1FD00287FF4C1AEDDE9213213
:103420000DF18C09E5E7039CE4073FF5CFAE0124DD
:10343000072BCDE92132C9F80060C9F8044000F338
:103440009382023009F11009F1E6002C7FF7EFAE0C
:10345000102C40F38386102508463B4605E00830D3
:10346000103C102C40F395830133A4491032072BF4
:10347000CDE92132C0E90015F1DD20AA59465046B8
:1034800002F0BAFD00287FF48AAEDDE9213223A8DC
:10349000E6E720AA5946504602F0AEFD00287FF428
:1034A0007EAE229A0DF18C09FFF74CBB0399099A65
:1034B000CD0602F104034DD4039A540644D5099A6B
:1034C0000993148800259CE418F0100F03F10402FE
:1034D00035D118F0400F099B2DD01C88099200258A
:1034E000012360E42D2364428DF86330DDF80C8005
:1034F00065EB4505012359E420AA5946504602F0E0
:103500007BFD00287FF44BAEDDE9213223A967E67D
:1035100020AA5946504602F06FFD00287FF43FAEC6
:10352000DDE9213223A967E6039BD9077FF51CABB0
:1035300090E54CAE45E518F4007F40F07D831C68B3
:103540000992012300252EE4039A12F4007F099AC0
:1035500040F0788314680993002552E4039B13F428
:10356000007F099B40F073831C680991E517224690
:103570002B46FFF7E3BBB4EE488BF1EE10FA80F177
:103580005C85612F00F0F684412F00F06984059B73
:1035900027F020055A1CA84600F08083472D00F034
:1035A0002A8518EE903A039C002B44F48072C0F2F6
:1035B0007785B0EE48AB00230A9308930392462D1B
:1035C00000F0F683452D40F0DD83B0EE4A0B059BFD
:1035D0001EA8591C1BABCDE900300D460A461AAB9C
:1035E0000221504600F0C8FE06464119B5EE40AB38
:1035F000F1EE10FA40F088830B469B1B0F93B8F155
:10360000470F1A9B0E9300F05783B8F1460F00F056
:10361000E9830E9BFAB2B8F1410F08BF0F3203F1F4
:10362000FF3306BFD2B201210021002B1A93B8BF8D
:103630000E9B8DF87020BABFC3F101032D222B22FF
:10364000092B8DF8712040F31C850DF17F0EDFF8FA
:10365000B4C075468CFB0321DA17C2EBA10202EB62
:103660008201A3EB410198463031B8F1630F28463F
:1036700005F8011C134605F1FF35EBDC3033821EE3
:10368000DBB29645294605F8013C40F28B850DF1E9
:10369000720201E011F8013B02F8013B8E45F9D1BD
:1036A0000DF181030DF172021B1A13441CAA9B1A1F
:1036B00014930F9B149A012B03EB020540F33685FC
:1036C000119B1D44002324F480640D9344F4807204
:1036D00010930E9325EAE573039204930A9B002B43
:1036E00040F00B839DF863100593FFF79FBA069A8D
:1036F0001046D117C3E90001FFF754BA606900080A
:103700005069000867666666A64B0C941393039B8A
:10371000980640F10581099B073323F00703F3E87E
:1037200002450993039AD6070AD554EA050307D040
:10373000302342F002028DF8657003928DF86430F8
:10374000039B23F480680223FFF72DBB0C94FFF743
:103750004DBBDDF80C800C94FFF719BB924B0C9419
:103760001393D4E7524207920993FFF703BB43F048
:103770002003677803930134FFF7F3B843F4007331
:10378000677803930134FFF7ECB820AA59465046F6
:1037900002F032FC00287FF402AD229A0DF18C0970
:1037A00068E44021584601F08BFDCAF80000CAF8D1
:1037B0001000002800F0E2844023CAF81430FFF71C
:1037C00099B8059D0D96062D28BF062505961096DD
:1037D0000E96089631460495744E0994FFF726BA62
:1037E000102C219B40F3E881102505E009F1080920
:1037F000103C102C40F3E08101336D491032072B4F
:10380000CDE92132C9E90015F0DD20AA594650461C
:1038100002F0F2FB00287FF4C2ACDDE921320DF1A9
:103820008C09E5E70F9B159D0A964846DDF8409008
:1038300006EB030859460D9BC346DDF85C80B9F1E1
:10384000000F2FD0002B30D1013D09F1FF39219B12
:10385000169C046001334244072B2292C0F8048076
:1038600021936BDC08302B78ABEB07049C42A8BF9C
:103870001C46002C0BDD219B076001332244072BE3
:1038800022924460219300F322812B780830002C8F
:10389000ACBF1C1B1C46002C0BDC1F440D9BB9F15C
:1038A000000FCFD1002B00F0FC810D9B013B0D934D
:1038B000CDE7102CDDF884C023DD05951026634686
:1038C0000D4604E0103C102C00F1080016DD013319
:1038D00037491032072BCDE92132C0E90016F1DD5E
:1038E00020AA2946504602F087FB002840F01882A3
:1038F000103C102CDDE9213223A8E8DC2946059D87
:103900009C460CF101032A4E2244072BCDE92132BB
:10391000C0E9006400F31A822B7808301F44BDE729
:103920000399099AC90602F1040319D4039A5206AD
:1039300010D5099A099314880025F3E620AA504669
:10394000059102F059FB0599002840F00384229A62
:1039500023A888E7039A12F4007F099A40F07F8138
:10396000146809930025DDE620AA5946504602F066
:1039700043FB00287FF413ACDDE921020DF194092B
:10398000013023A953E408F4806300220397CDF8A3
:103990001080CDF820904CAEDDF854901746984634
:1039A00010E000BF1C690008306900084469000885
:1039B00060690008FCF77EFD002D08BF0A2C20D3AB
:1039C00004460D460A22002320462946FCF772FDD4
:1039D00094460CF1300C06F801CC204629460A2208
:1039E00000230137013EB8F1000FE3D099F800C081
:1039F0006745DFD1FF2FDDD09D4208BF944280F0A4
:103A0000ED80CDF854900F97DDF82090DDE9037834
:103A1000FFF7D3BA20AA5946504602F0EDFA002823
:103A20007FF4BDAB9DF86310229A0DF18C09FFF76E
:103A300060B8219BC348C9F800000133013201205E
:103A4000072BCDE92132C9F8040000F3DB8009F12E
:103A50000809002960D1039B0F9903F001030B4370
:103A60003FF482A8219B1299C9F800101199C9F856
:103A7000041001330A44072B2292219300F3F380B0
:103A800009F108090F9901330A44072BCDE92132C6
:103A9000C9E900617FF766A8FFF7D3BB20AA5946A2
:103AA000504602F0A9FA00287FF479AB229A0DF172
:103AB0008C09FFF7CABA0133A3492244072BCDE989
:103AC0002132C9E900147FF74DA8FFF7BABB20AA3D
:103AD0005046059102F090FA0599002840F03A838B
:103AE0002B78229A23A8D2E620AA5946504602F003
:103AF00083FA00287FF453AB229A0DF18C09FFF76B
:103B00001CB8012BDDF80C807FF445AAFFF7ABBB96
:103B1000069A1A60FFF746B8219B1298C9F8000070
:103B20001198C9F8040001330244072B2292219313
:103B300000F3998009F108090029A3DA4C421031F9
:103B400080F23882102505E009F10809103C102C9C
:103B500040F3308201337C491032072BCDE921320A
:103B6000C9E90015F0DD20AA5946504602F044FA92
:103B700000287FF414ABDDE921320DF18C09E5E773
:103B80003046FCF73DFB4346CDF814800546FFF771
:103B9000BAB80146581C01F108036B4D219022442C
:103BA0000728C1E9005422923FF7DEAE013003F14D
:103BB00008091946FFF73BBB013363492244072B31
:103BC000CDE92132C9E900145BDC09F10809FFF7EE
:103BD000CBBB2D218DF86310FFF717B8179B1699F3
:103BE000F61A1A46304602F0D3F999F801300BB1B3
:103BF00009F101090A220023204629460027FCF783
:103C000059FCDDE620AA5946504602F0F5F9002895
:103C10007FF4C5AA1A99229A0DF18C0919E70F9918
:103C20007418E41BCB1A9C42A8BF1C46FFF7D2BBFA
:103C3000069A1A80FEF7B6BF1C7809920025012368
:103C4000FFF7B1B8147809930025FFF7DAB893F9B4
:103C500000400991E51722462B46FFF76FB814780C
:103C6000099300255EE520AA5946504602F0C4F9A2
:103C700000287FF494AADDE921321A990DF18C090C
:103C80005AE720AA5946504602F0B6F900287FF4B8
:103C900086AA229A0DF18C09FFF766BB06230593CD
:103CA0007FE40A9E0F9B1595F3189F4281468B4631
:103CB00028BF1F46FFF75FBBDA1C02DB059A934261
:103CC00003DD023F27F02008A3E4DDE90E318B423B
:103CD000C0F2B980E50740F1E881119A9D186405AA
:103CE00003D50E9B002B00F3E28125EAE5730493D4
:103CF000672700230D931093F0E42D2100238DF806
:103D000063100593FEF795BF1E9B8B42BFF475AC05
:103D100030205A1C1E9218701E9B9942F9D86CE4F0
:103D2000D346AA46FFF73EBA20AA5946504602F0AB
:103D300063F900287FF433AA229A0DF18C09FFF76A
:103D40000BBB00BF4C6900086069000820AA504600
:103D5000059102F051F90599002840F0FB812B787C
:103D6000229A23A81F4499E520AA5946504602F0FA
:103D700043F900287FF413AA1A9B229A0DF18C09AB
:103D8000FFF711BB1EAA1BABCDE90032B0EE4A0B08
:103D9000059A1AAB0221504600F0EEFA472D06466E
:103DA00013D1E30700F1E0801E9B4FF0470824E4A5
:103DB0001EAA1BABCDE90032B0EE4A0B059A1AAB36
:103DC0000321504600F0D8FA0646059B462D06EB27
:103DD00003017FF40BAC3378302B00F092811A9BF7
:103DE000194403E40E99059A04F00103002943EAFB
:103DF000020340F3A081002B40F07E810E9D6627D8
:103E0000620500F1558125EAE573049371E7059B8E
:103E10009DF8631004931D46059009940D90109031
:103E20000E90FEF703BF20AA5946504602F0E4F870
:103E300000287FF4B4A91A9B0F99229ACB1A0DF18E
:103E40008C09FFF7C7BA0F9B119A9D180E9B002B88
:103E500040F364816727D3E700230593FEF782BD13
:103E600030238DF8643058238DF86530039B43F080
:103E70000204059B632B00F3B4800023089333AE48
:103E8000039B43F48173039318EE903A27F02005C7
:103E9000002BA8465ADBB0EE48AB00230A93612FF3
:103EA00000F0DD80412F7FF48AABB0EE4A0B1AA8F8
:103EB00002F032F8B4EE007B20EE070BB5EE400BBB
:103EC000F1EE10FA01D101231A93B848059BB3EE25
:103ED000005B5A1E334604E0B5EE400BF1EE10FADB
:103EE00013D020EE050BFDEEC07BB2F1FF3F17EEC5
:103EF000901A415CB8EEE76B1D4630EE460B03F8B6
:103F0000011B114602F1FF32E6D1B6EE006BB4EEB2
:103F1000C60BF1EE10FA32DCB4EE460BF1EE10FAFD
:103F200003D117EE902AD20729D40029FFF665ABFA
:103F30004A1C1A44302103F8011B9A42FBD1FFF7B7
:103F40005CBB00230893049B039C03932D230A93DB
:103F5000B1EE48ABA3E7584620AA514602F04CF810
:103F6000BAF80C30FEF72CBE059B4FF04708F1184D
:103F7000FFF73CBB30238DF86430782374E71E953F
:103F800013F8011CC57BA9421A460AD14FF0300C28
:103F900002F801CC1E9A511E1E9112F8011C8D428E
:103FA000F6D0392916BF0131817AC9B202F8011C55
:103FB000FFF723BB01337E492244072BCDE9213291
:103FC000C9E900147FF75CAD20AA5946504602F0BB
:103FD00013F800287FF4E3A8DDE921320DF18C0904
:103FE00050E5591C504601F06BF90646002800F0D8
:103FF000CD80089044E7002B08BF01230593039B65
:1040000043F48073049318EE903A002B99DBB0EEE2
:10401000480BB0EE48AB1EAA1BABCDE90032022123
:10402000059A1AAB504600F0A7F90023049A039CA6
:104030000A93064603920893B3E618EE903A002BD3
:10404000B4BF2D219DF863105A4E5B4BB8BF8DF85D
:104050006310FEF7DCBDBBF80C30FEF7B1BD1AA84B
:10406000B0EE4A0B01F058FFB4EE007B20EE070BD8
:10407000B5EE400BF1EE10FA01D101231A934F482F
:1040800024E700296CD130228DF872200DF17302E3
:10409000303302F8013B1CABD31A1493FFF709BB72
:1040A0000023039C0893039250E70E9D17E66727B1
:1040B00015990B78FF2B71D000240E9A204603E04F
:1040C00001300131FF2B08D0934206DAD21A4B7827
:1040D000002BF5D10B780134F4E715910E92109076
:1040E0000D940D9A109B1344179A02FB035525EA71
:1040F000E5730493FFF7F2BA119BCD1815446627B8
:104100007EE6B5EE40ABF1EE10FA3FF468AE059BEB
:10411000C3F101031A931944FFF768BAC3F101030D
:104120001D4425EAE57304936727E2E5E3077FF57D
:10413000C9AAFFF7C5BA23B9012304931D46662710
:10414000D7E5119B5D1C059B1D4425EAE57304938F
:104150006627CEE5D3468A46FFF724B84B461CE5D2
:104160000DF1720294E7099B677853F8041B0993D9
:10417000144641EAE1720592FEF7F3BB0C23CBF83B
:1041800000304FF0FF330693FEF721BDBBF80C3033
:1041900043F04003ABF80C30FEF712BD00230D9343
:1041A00010939EE702231493FFF783BA3069000847
:1041B0006069000814690008186900081C69000893
:1041C0002DE9F047DFF87CA00646DAF800009846B3
:1041D0000F46914601F070F8194B1B68D3F848411F
:1041E00024B36568DAF800001F2D24DC4EB9AB1C3F
:1041F0000135656044F8237001F060F80020BDE8E7
:10420000F08704EB85030122C3F88890D4F8881165
:10421000AA401143022EC4F88811C3F80881E6D1E0
:10422000D4F88C311A43C4F88C21E0E703F5A67466
:10423000C3F84841D5E701F041F84FF0FF30DEE721
:104240000869000838040020024B13B10248FEF749
:1042500085BA704700000000692700082DE9F04F7B
:1042600003690E69B34283B0C0F28280013E01F15E
:10427000140700F1140A57F826305AF826200133A3
:104280008346B00000909A420AEB860007EB86094D
:104290000190B2FBF3F836D300252A46BC465046BF
:1042A0005CF8044B03681FFA84FE08FB0E554FEAC6
:1042B000154E240C08FB04E4ADB2551BA2B2C2EBB0
:1042C000134215FA83F302EB23429BB243EA024303
:1042D000E14540F8043B4FEA14454FEA2242DFD261
:1042E000009B5AF8033073B9019B043B9A4504D3F1
:1042F00007E09A4506F1FF3603D253F80429002A55
:10430000F7D0CBF81060584601F0E4FC00282BDB16
:1043100008F101085046002357F8041B04688AB2CC
:104320009A1A0B0C12FA84F2C3EB144303EB2243E8
:1043300092B242EA0342B94540F8042B4FEA2343C4
:10434000EAD25AF826200AEB86036AB9043B9A455A
:1043500004D307E09A4506F1FF3603D253F8042947
:10436000002AF7D0CBF81060404603B0BDE8F08FCC
:10437000002003B0BDE8F08F2DE9F04F57EC106B33
:1043800095B0056C0391CDE90932CDE90667044685
:104390004DB1426C6A6001239340AB60294601F045
:1043A00093FA00232364B7F100081E9AB4BF0123D7
:1043B00000231360BE4BBCBF28F00048CDF81C8022
:1043C00033EA080300F0A2809DED067BB5EE407B4A
:1043D000F1EE10FA8DED007B0ED1099A01231360E6
:1043E0001F9B002B00F03C82B2481860431E0493D0
:1043F000049815B0BDE8F08F9DED000B12AA13A92B
:10440000204601F019FD5FEA185A834640F0948077
:10441000DDE912130B4403F23242202A40F3FE82FC
:10442000C2F1400203F2124008FA02F2C6403243DF
:1044300007EE902AB8EE677B03F1FF3A8DED047B1F
:104440000598DDE90423A0F1F87301200E9043ECF8
:10445000172BB7EE086B9FED904B37EE466B9FED39
:10446000907B9FED915BA6EE047B06EE90AAB8EEE2
:10447000E66BA6EE057BFDEEC76BB5EEC07BF1EEFD
:1044800010FA16EE905A08D5B8EEE66BB4EE476B0C
:10449000F1EE10FA18BF05F1FF35A1EB0A0A162D4F
:1044A0000AF1FF3700F24181834B03EBC50393ED23
:1044B000007B9DED006BB4EEC76BF1EE10FA51D5A9
:1044C0000023002F05F1FF350D93C0F233814FF02B
:1044D000000A002D4CDA6B420C93039B0895092BC4
:1044E000AAEB050A4FF0000549D8052B40F39D8241
:1044F000043B03930026039B023B032B00F21E8127
:10450000DFE813F0AF03AC03A3038203099A42F27E
:104510000F73C8F31308136058EA06031BD11F9BDF
:10452000002B00F06085654B049308331F9A0498B4
:10453000136015B0BDE8F08F0199C1F31301DDE9F7
:104540000023002041F07F53AAF2FF3A12990E9007
:1045500043F440137BE71F9B002B40F04483584BF0
:10456000049345E70023002F0D93C0F2E3809A46A1
:1045700000230C93039B0895092B2F44B5D90023E6
:104580000126CDE90A364FF0FF380393C1460021DA
:104590006164CDF83C90204601F070F9B8F10E0F3F
:1045A0000490206400F2D980002E00F0D680089993
:1045B000002940F3D983404B01F00F0203EBC20303
:1045C000CE0593ED007B4FEA211340F179833D4AFC
:1045D0009DED005B92ED086B03F00F03032185EE68
:1045E000065B5BB1374AD80704D592ED006B013109
:1045F00027EE067B5B1002F10802F4D185EE076B13
:104600000D9B3BB1B7EE007BB4EEC76BF1EE10FA39
:1046100000F1918407EE901AB8EEE75BB1EE0C7BE7
:10462000A5EE067B8DED107B1199DDE91023A1F13C
:104630005073B9F1000F00F07F83DDF820C04946C8
:10464000BDEEC67B1C4817EE106A00EBC10010EDF2
:10465000024BB8EEC77B0B9836EE477B43EC162B2C
:10466000049B3036F6B25A1C002800F01784B6EED0
:10467000003B83EE045B35EE465BB4EEC75BF1EEC8
:1046800010FA1E7000F38B84B7EE003BB2EE044BC1
:10469000002330E0AFF3008061436F63A787D23F10
:1046A000B3C8608B288AC63FFB799F501344D33F21
:1046B0000000F07F4D690008B869000874690008BF
:1046C00070690008906900088B4246DA27EE047B87
:1046D00025EE045BBDEEC76B16EE100AB8EEC66B96
:1046E000303037EE467BB4EEC57BF1EE10FA02F8BF
:1046F000010B00F1548433EE476BB4EEC56BF1EE61
:1047000010FA03F10103DFD50CF1010304990893BA
:1047100002E0914200F03184914612F8013D392BBC
:10472000F7D00133DBB2137061E10123002F0D9349
:10473000BFF6CDAECAF1010A0027CAE600266664BC
:104740003146204601F09AF84FF0FF330F93994617
:10475000012304900A9620640B93139B002B5DDBCE
:10476000089A0E2A5ADCBD4B03EBC20393ED005BA3
:104770000A9B002B17DAB9F1000F14DC40F0F0822D
:10478000B1EE047B25EE075B9DED007BB4EEC57BAF
:10479000F1EE10FAC8464E4600F27E820A9BDDF822
:1047A0001090DA437FE29DED007B87EE056BBDEE56
:1047B000C66B9DED004B16EE103A049A3033B9F1FA
:1047C000010FB8EEC67B02F8013BA7EE454BB0EEF9
:1047D000447B00F02483B2EE043B012310E087EE1B
:1047E000056BBDEEC66B994516EE101A01F130014E
:1047F000B8EEC64B02F8011BA4EE457B00F00F8318
:1048000027EE037BB5EE407BF1EE10FA03F10103D6
:10481000E5D1089B013308939146E8E00B9A2AB34F
:10482000039A012A40F36C820C9B09F1FF3843453F
:1048300080F243820C9BCDF83080A8EB03031D442B
:104840004FF00008B9F1000FC0F21483CDF800A0BA
:104850004F44CA440121204601F0D6F806460AE03A
:104860007F4B0493049815B0BDE8F08FDDF83080DD
:104870000B9ECDF800A0009A002A0ADD002F08DD6B
:10488000BA421346A8BF3B46D21AAAEB030A0092CB
:10489000FF1A0C9BE3B10B9B002B00F09D81B8F13C
:1048A000000F10DD31464246204601F059F95A46C4
:1048B00001460646204601F0B1F859460346204617
:1048C0009B4601F001F80C9BB3EB080240F0858198
:1048D0000121204601F098F8002D804600F3A780C2
:1048E000039B012B40F3838100230C930120002DB7
:1048F00040F0A980384410F01F0000F08D80C0F116
:104900002003042B40F37383C0F11C00009B03447D
:10491000824400930744BAF1000F05DD5946524620
:10492000204601F06DF98346002F05DD41463A46E9
:10493000204601F065F980460D9B002B40F0338145
:10494000B9F1000F40F31981089B013308930B9BC9
:10495000002B40F09380049F012503E000F0BEFF90
:104960000135834641465846FFF778FC4D4500F136
:10497000300A07F801AB59464FF000034FF00A0226
:104980002046EBDBB9F1000F049BD8BF4FF00109C3
:104990009944002759460122204601F031F9414649
:1049A000834601F097F9002819F8012C40F3928111
:1049B000049909F1FF3304E0994200F09A8113F859
:1049C000012D392A03F10109F6D001321A7041464E
:1049D000204600F079FF56B12FB1B74203D03946D7
:1049E000204600F071FF3146204600F06DFF594629
:1049F000204600F069FF002389F80030099B1A4621
:104A0000089B13601F9B002B3FF4F2AC0498C3F883
:104A1000009015B0BDE8F08F1C2077E7C2F12002AE
:104A200006FA02F207EE902A04E5012663E5014644
:104A30002A46204601F094F8039B012B804640F360
:104A4000BA8100230C93D8F8103008EB830318695F
:104A500000F08AFFC0F120004CE700BFB8690008F1
:104A60004C690008314600230A22204600F036FF38
:104A70000F9B002B064640F3A9829946009B002B12
:104A800005DD31461A46204601F0BAF806460C9B71
:104A9000002B40F0DB813546069B0499039803F018
:104AA00001024B1E4B440D9202430C920B9389461C
:104AB00041465846FFF7D2FB31460346584600931D
:104AC00001F008F92A4607464146204601F020F940
:104AD000009B03F13002C3688246002B3FD10146A0
:104AE00058460A9201F0F6F851460690204600F02A
:104AF000EBFE069B0A9A1BB90C99002900F05B8219
:104B0000002F09F1010AC0F26B8103990F430D993F
:104B1000394300F06581002B00F3B0810B9B89F8CD
:104B20000020994500F0B581594600230A2220460D
:104B300000F0D4FEAE42834631464FF000034FF002
:104B40000A02204613D000F0C9FE2946064600237B
:104B50000A22204600F0C2FED1460546A8E70146DB
:104B60002046069200F0B0FE069A0123C8E700F046
:104B7000B5FED146064605469AE7039B022B79DC33
:104B8000089B013308930B9B002B7FF477AF4146C2
:104B90005846FFF763FBDDF8109000F1300A09F882
:104BA00001AB0027F6E64146584601F093F800288D
:104BB000BFF6C6AE594600230A22204600F08EFEFC
:104BC000089B5D1E0B9B8346002B7FF44BAF0F9B16
:104BD000002B49DD9946BEE60C9A5946204600F066
:104BE000BFFF834674E6CD4B049303339EE4DDE9B7
:104BF000061200297FF478AEC2F31303002B00F0F5
:104C0000E480069B0C9371E601230B930A9B089AA0
:104C1000134403F10109B9F1010FCC460F93B8BF5A
:104C20004FF0010C0021BCF1170F6164C8467FF7FB
:104C3000B2AC012204235B0003F11400604511466D
:104C400002F10102F7D96164A5E401230B930A9BE9
:104C5000002B39DD0F9399469C46E3E700230B9325
:104C6000D4E700230B93F2E7039B022B8FDDDDF8E3
:104C70003C900895B9F1000F7FF490AD41464B464A
:104C80000522204600F02AFE01468046584601F0E3
:104C900021F800287FF782ADDDF81090089A3123C3
:104CA00009F8013B0132531C41462046089300F0AD
:104CB0000BFE002E7FF497AE99E6A3EB0808C1E542
:104CC0009DED005B02218CE44FF00108C146CDF858
:104CD00028805CE403D11AF0010F7FF469AE09F17A
:104CE000FF3301E013F8012D302A03F10109F9D057
:104CF0006DE6089A01320892049A3123137066E631
:104D00000E9A002A00F0FF8003F23343CDF800A092
:104D1000DDF830801F449A449CE507EE901AB1EE0E
:104D20000C5BB8EEE77BA7EE065B8DED105B11998F
:104D3000DDE91023A1F15073B1EE047B36EE477B21
:104D400043EC162BB4EEC67BF1EE10FA00F3218192
:104D5000B1EE466BB4EEC67BF1EE10FA7FF5FDAC1A
:104D60004FF00008464619E500F0E080089B6C4AC9
:104D70005B4203F00F0102EBC10292ED006B9DED6F
:104D8000007B1B1127EE066B00F02781B0EE467BFF
:104D9000644A00200221DE0705D592ED005B013157
:104DA000012027EE057B5B1002F10802F3D10028F9
:104DB00006FE076B24E4DDE9061200297FF441AE0C
:104DC000C2F31303002B40F00B81574B1340002B11
:104DD00000F0E38001230AF1010A01370C9385E515
:104DE000002BCDF80C90D146924612DD5946012297
:104DF000204600F005FF4146834600F06BFF002887
:104E000040F3D280BAF1390F00F0BD80009B03F16E
:104E1000310A039B374683F800A02E46D7E5089B4E
:104E200037EE077B0133B4EEC57BF1EE10FA089341
:104E300008DCB4EE457BF1EE10FA05D116EE103A1F
:104E4000DB0701D5049967E49146D0E571682046F7
:104E500000F014FD3369023305469A0006F10C0197
:104E60000C30FBF78DFA29460122204600F0C8FEDF
:104E7000054611E6AAEB09030093EBE4392ACDF8C5
:104E80000C90D1467FD0531C039A374613702E46A0
:104E90009DE5D146374692462E467BE5049B26EE9D
:104EA000044B01291E7012D0B2EE045B049B19441E
:104EB00027EE057BBDEEC76B16EE103A303302F8D5
:104EC000013B8A42B8EEC66B37EE467BF0D1B6EEB8
:104ED000006B34EE065BB4EEC75BF1EE10FA3FF503
:104EE00013AC36EE446BB4EEC76BF1EE10FA7FF7FD
:104EF00034AC9146013A19F8013C302BF9D00CF151
:104F00000103089373E5129BCDF800A0C3F13603AB
:104F1000DDF830801F449A449CE400BF70690008AB
:104F2000B8690008906900080000F07F9DED006BF3
:104F30000221FFF765BBB9F1000F3FF4EEAE0F9809
:104F400000287FF70AACB2EE044BB1EE0C5B0131E6
:104F500007EE901A26EE046BB8EEE77BA6EE075B31
:104F60008DED105B1199DDE91023A1F150730899C3
:104F700001F1FF3C0146FFF763BB089B0133089337
:104F80003123137033E5039B392237461A702E46BE
:104F90000EE54FF0000846467EE60C93A6E40CF1C1
:104FA00001030893914622E57FF433AF1AF0010F15
:104FB0007FF428AF2DE7392ACDF80C90924609F1FD
:104FC0000109E0D0002F3FF721AF22E7039B022B1E
:104FD0003FF74DAEDDF83C9050E50221FFF710BBE6
:104FE000069B0C932FE5044B0493FFF701BA3FF4A3
:104FF00092ACC0F13C0089E474690008F8B5244F14
:105000000C46064600F02EFCBB685D68C4F57E6168
:105010000F3125F003054B1923F47F6323F00F03B1
:10502000A3F58054B4F5805F07DB0021304600F023
:1050300061FFBB682B44984204D0304600F018FC56
:105040000020F8BD6142304600F054FF01300DD021
:10505000104AB96813682D1B45F0010530461B1B2B
:105060004D60136000F004FC0120F8BD00213046C3
:1050700000F040FFBA68831A0F2BDEDD064C0549AD
:10508000246843F00103001B53600860D5E700BFAC
:10509000A8050020D4090020B0090020002963D011
:1050A000F8B50C46064600F0DDFB54F8045C7D497B
:1050B00025F00100A4F1080C0CEB00038F685A687E
:1050C0009F4222F0030200F08E80ED075A6003EB4E
:1050D000020736D454F808EC7C68ACEB0E0C01F1F6
:1050E0000807DCF80850BD42704404F0010468D0A1
:1050F000DCF80CE0C5F80CE0CEF80850002C00F00D
:10510000998040F00102CCF804201860B0F5007FCF
:1051100033D2C3084C680133420901209040204338
:1051200001EBC30251F833404860083ACCE902422F
:1051300041F833C0C4F80CC03046BDE8F84000F078
:1051400097BB7D68ED0710D4104401F108079A68F9
:10515000BA4240F0010475D0DB68D3609A60CCF8A5
:1051600004404CF80000D1E7704740F00102B0F570
:10517000007F44F8042C1860CBD3B0F5206F4FEAC1
:1051800050234CD2830903F13905ED0003F13802B5
:105190004B594C19083C9C425DD05A6822F00302DE
:1051A000824202D99B689C42F7D1DC68CCE9023488
:1051B0003046C4F808C0C3F80CC0BDE8F84000F0A1
:1051C00057BB002C68D1D3E90231024442F0010000
:1051D000D9608B60CCF8040030464CF80220BDE862
:1051E000F84000F045BBEF07024408D454F8083CEF
:1051F000ACEB030C1A44DCE90203C36098602A4B51
:105200001B6842F001009342CCF80400C1F808C0CA
:1052100092D8264B30461968FFF7F0FE8CE7142B26
:105220000AD9542B1FD8030B03F16F05ED0003F1CE
:105230006E02ADE710448AE703F15C05ED0003F16F
:105240005B02A5E7C1E904CCCCE90277CCF80440C5
:105250004CF8000070E748689210012505FA02F248
:1052600002434A60A2E7B3F5AA7F06D8C30B03F155
:105270007805ED0003F177028AE740F25452934239
:1052800006D8830C03F17D05ED0003F17C027FE776
:105290004FF47E757E227BE740F00102CCF80420BB
:1052A000186049E7A8050020B4090020040A00207E
:1052B000004870472C050020704700BF704700BFB2
:1052C0002DE9F04F01F10B05162D83B0064623D8CA
:1052D000102900F2A78000F0C5FA1025022018233B
:1052E000CA4F3B44A3F108025C68944200F0A780D7
:1052F000636823F003032344D4E902515A68E96048
:1053000042F0010230468D605A6000F0B1FA083474
:10531000204603B0BDE8F08F35F0070500F182802C
:10532000A9427FD800F09EFAB5F5FC7FC0F0A281BB
:105330006B0A7ED0042B00F25D81AB0903F13900CA
:1053400003F1380CC300B14F3B44A3F108015C6882
:10535000A14206D10CE0002A80F21981E468A14242
:1053600006D0636823F003035A1B0F2AF3DD60465F
:105370003C69DFF8AC8244456CD0626822F00302DD
:10538000531B0F2B00F38481002BC7E9048880F2A4
:105390007581B2F5007F80F00881D1080131520992
:1053A000012393407A6857F831C0C4F808C007EB6E
:1053B000C10E1343AEF10802E2607B6047F8314052
:1053C000CCF80C4082104FF0010C0CFA02FC9C450A
:1053D00048D81CEA030F08D120F003004FEA4C0C18
:1053E0001CEA030F00F10400F8D007EBC00AD64610
:1053F0008146DEF80C300BE0596821F003014A1BAE
:105400000F2A1C46DB6800F30F81002A80F22581F9
:105410009E45F1D109F1010919F0030F0EF1080EB3
:10542000E7D16AE10C2333600024204603B0BDE8D5
:10543000F08F4FF4007340204FF03F0C83E7DC689F
:10544000A34208BF02307FF453AF3C69DFF8D0813C
:10545000444592D17B6882104FF0010C0CFA02FC9B
:105460009C45B6D9BC68636823F00308454503D85A
:10547000A8EB05030F2B7ADCDFF8A891644BD9F871
:1054800000201B6801322B4404EB080A00F0508115
:1054900003F580530F3323F47F6B2BF00F0B59462A
:1054A000304600F027FD411C024600F00B8182458A
:1054B00000F20681574B196859441960084600F0FC
:1054C0006B81D9F80010019301311BBFA2EB0A0ACE
:1054D0005044C9F80020186012F0070A00F0348127
:1054E000CAF108010A44CAF5805193440831A1EB7E
:1054F0000B01C1F30B0949463046009200F0FAFC5B
:10550000421CDDE9002300F06C81801A00EB090BDE
:105510001968BA604BF001004944BC425060196000
:1055200000F04681B8F10F0F40F244816068A8F1A5
:105530000C0C2CF0070C00F0010004EB0C0E40EA00
:105540000C004FF00508BCF10F0F6060CEE9018838
:1055500000F24F81506814462F4B1A688A4238BFB8
:1055600019602E4B1A688A4238BF1960ACE0621984
:1055700043F0010345F0010565603046BA605360B1
:1055800000F076F90834204603B0BDE8F08F2344DC
:10559000E1685A68A56842F00102E96030468D6012
:1055A0005A6000F065F908343FE7B2F5206F4FEA22
:1055B00052237FD3142B00F2D88003F15C01C90081
:1055C0005B3307EB010C7958ACF1080C8C4500F00B
:1055D000B2804B6823F00303934202D989688C455B
:1055E000F7D1D1F80CC07B68C4E9021CCCF80840A4
:1055F000CC60E7E6142B75D9542B00F2BE802B0B40
:1056000003F16F0003F16E0CC3009CE6A8050020B7
:10561000040A0020D4090020FC090020000A002010
:10562000B0050020B0090020D4F808E004EB050C18
:1056300045F00105656042F00105CEF80C303046BA
:10564000C3F808E0C7E904CCCCE90288CCF80450E0
:10565000625000F00DF90834E7E6214454F8085F81
:105660004A6842F001024A603046EB609D6000F0FB
:10567000FFF8DAE6E80805F1080331E6224430468F
:10568000536843F001035360083400F0F1F8CCE6AE
:10569000611945F0010C43F00105C4F804C030461F
:1056A000C7E90411C1E902884D60A35000F0E0F899
:1056B0000834BAE6930903F13901C900383380E7A9
:1056C000BC4264D0BC68606820F0030B5D45ABEB66
:1056D000050302D80F2B3FF74AAF304600F0C8F859
:1056E0000024A2E603F15C0003F15B0CC3002AE690
:1056F0005AF80839534540F09B8010F0030F00F131
:10570000FF30F5D17B6823EA0C037B604FEA4C0C39
:105710009C453FF6A7AEBCF1000F04D1A2E64FEACC
:105720004C0C09F104091CEA030FF8D048465CE66A
:1057300003F1100BB3E69A104FF0010E7B680EFADE
:1057400002F213437B604FE702EB0B014942C1F3C6
:105750000B0949463046009200F0CCFB431CDDE9C2
:1057600000237FF4D2AED146D2E6542B25D8130BBA
:1057700003F16F01C9006E3323E7B3F5AA7F25D883
:10578000EB0B03F1780003F1770CC300DBE5294B49
:1057900018685844186094E6CAF30B0CBCF1000F6B
:1057A0007FF48FAEBC68C3444BF001006060D3E669
:1057B0001446D1E6012353608FE7B3F5AA7F23D8BF
:1057C000D30B03F17801C9007733FAE640F2545263
:1057D000934223D8AB0C03F17D0003F17C0CC30092
:1057E000B1E5AAF1080AD344ABEB020B4FF0000974
:1057F0008EE604F1080130460093FFF74FFCBC68C9
:10580000009B60681968A7E640F254518B420BD8A0
:10581000930C03F17D01C9007C33D2E64FF47E7313
:105820007F204FF07E0C8EE54FF47E717E23C8E61C
:105830007B686BE7D409002082B049B15AB16BB1E3
:1058400013780B601278101E18BF012002B0704749
:1058500001A9002AF3D1104602B070476FF0010091
:10586000F4E700BF0148FFF727BD00BF940B0020FD
:105870000148FFF723BD00BF940B0020C36C70B537
:1058800005460C464BB153F8240080B1026843F83A
:1058900024200023C0E9033370BD2122042100F03D
:1058A00035FC0346E8640028EDD1002070BD0121DD
:1058B00001FA04F6721D2846920000F027FC002829
:1058C000F3D0C0E90146E4E731B1C36C4A6853F84C
:1058D0002200086043F82210704700BF2DE9F8430A
:1058E0000F69884681461D4601F1140000210668B3
:1058F000B4B202FB04531C0C350C02FB054501310C
:105900009CB204EB05448F4240F8044B4FEA154526
:10591000EDDC4DB1D8F80820BA4208DD08EB87026B
:1059200001375561C8F810704046BDE8F883D8F8D3
:10593000041048460131FFF7A1FFD8F810200232C9
:1059400008F10C01044692000C30FAF719FDD9F861
:105950004C20D8F8041052F82100C8F8000042F892
:105960002180A046DAE700BF030C1B04D3B9000472
:10597000102310F07F4F04BF0002083310F0704F67
:1059800004BF0001043310F0404F04BF8000023315
:10599000002805DB10F0804F03F1010308BF20232E
:1059A000184670470023E4E7036813F00702014636
:1059B00007D0DA0720D4980722D55B080B600120B6
:1059C000704798B2A8B1104613F0FF0F04BF1B0A2E
:1059D00008301A0704BF1B0904309A0704BF9B084C
:1059E0000230DA0703D45B0800F1010006D00B6037
:1059F00070471B0C1020E7E70020704720207047FD
:105A00009B080B600220704710B50C460121FFF780
:105A100035FF0122C0E9042410BD00BF2DE9F04F7D
:105A20000D691769BD4285B00E46144605DB3A463E
:105A300023462F460C4615461E46D4E9011307EBB4
:105A400005084345B8BF0131FFF718FF00F11409FD
:105A500009EB880AD145019005D24B46002243F854
:105A6000042B9A45FBD806F1140E0EEB850B04F1BE
:105A70001403DE451A4603EB87075FD23B1B153B39
:105A800023F0030304331534A74238BF0423CDE9C0
:105A900002A89846924605E0000C29D1F34509F189
:105AA000040949D95EF8040B86B2002EF4D055469D
:105AB0004C46002355F8041B20688AB21FFA80FC6C
:105AC00006FB02C2090C000C134406FB010202EBA8
:105AD00013429BB243EA0243AF4244F8043B4FEA0D
